:100000005EC0000081C000007FC000007DC0000015
:100010007BC0000079C0000077C0000075C0000000
:1000200073C0000071C000006FC000006DC0000010
:100030006BC0000069C0000067C0000065C0000020
:10004000DAC2000061C0000054C1000093C100008A
:100050005BC0000059C0000057C0000055C0000040
:1000600053C0000051C00000000000070002010062
:100070000003040600000000000000000102040864
:100080001020408001020408102001020408102002
:10009000040404040404040402020202020203032E
:1000A0000303030300000000250028002B000000CC
:1000B0000000240027002A00D70074022F06112414
:1000C0001FBECFEFD8E0DEBFCDBF11E0A0E0B1E0B2
:1000D000E0E0FEE002C005900D92A036B107D9F72E
:1000E00012E0A0E6B1E001C01D92A232B107E1F733
:1000F00010E0CEEBD0E003C02297FE017BD6C83BD8
:10010000D107D1F747D27AC67BCF6115710581F04F
:10011000DB010D900020E9F7AD0141505109461B6C
:10012000570BDC01ED91FC910280F381E02D0994E5
:1001300080E090E008956EE170E081E691E0EDD31B
:1001400040E855E260E070E08DE691E04EC121E0CC
:10015000409100016FE070E081E691E0CED48DE641
:1001600091E02BD0181619060CF58DE691E054D0CD
:1001700080936001863659F463E171E08DE691E089
:10018000C4DF81E090E090930101809300018091B1
:100190006001823759F461E371E08DE691E0B5DFEB
:1001A00082E090E09093010180930001089542E085
:1001B00068EC70E081E691E058C3FC018485958588
:1001C000FC01E05CFF4F20813181FC01EE5BFF4FC1
:1001D00080819181281B390B2F733327C901089522
:1001E000FC0184859585FC01E05CFF4F40815181D5
:1001F000FC01EE5BFF4F208131814217530741F034
:100200000190F081E02DE80FF91F208130E002C05D
:100210002FEF3FEFC9010895FC0184859585FC010E
:10022000E05CFF4F40815181FC01EE5BFF4F20817C
:1002300031814217530781F0A081B181A80FB91F06
:100240008C91208131812F5F3F4F2F733327318372
:100250002083282F30E002C02FEF3FEFC90108951F
:10026000FC0181A1882329F0A489B5898C9186FF9E
:10027000FBCF11A20895CF93DF93FC01268537852C
:10028000D901A05CBF4F8D919C91119701968F73FE
:100290009927E901CE5BDF4F488159818417950783
:1002A000D9F30D90BC91A02DA20FB31F6C93A6851E
:1002B000B785A05CBF4F11969C938E93A689B78992
:1002C0002C9181E090E0078C02C0880F991F0A945E
:1002D000E2F7282B2C9381E081A30488F589E02D97
:1002E00080818064808381E090E0DF91CF910895E8
:1002F00008951F920F920FB60F9211242F933F93E0
:100300004F938F939F93EF93FF938091C00082FD53
:100310001CC04091C6008091130290911402019676
:100320008F73992720911502309116028217930737
:1003300071F0E0911302F0911402ED52FE4F4083F0
:10034000909314028093130202C08091C600FF9123
:10035000EF919F918F914F913F912F910F900FBEF1
:100360000F901F9018958DE691E027DF892B09F0FB
:10037000BFCF08951F920F920FB60F9211242F93A3
:100380003F938F939F93EF93FF932091CF013091F1
:10039000D0018091D1019091D2012817390731F411
:1003A0008091C1008F7D8093C10014C0E091D10184
:1003B000F091D201E157FE4F20818091D1019091BF
:1003C000D20101968F7399279093D2018093D10126
:1003D0002093C600FF91EF919F918F913F912F91B4
:1003E0000F900FBE0F901F901895CF92DF92EF9253
:1003F000FF92CF93DF93EC016A017B01411581EEFF
:10040000580761057105F1F0EC89FD8981E090E004
:1004100008A002C0880F991F0A94E2F7808360E069
:1004200079E08DE390E0A7019601C0D42150310915
:10043000410951095695479537952795211580E132
:10044000380790F0EC89FD89108260E874E88EE14D
:1004500090E0A7019601AAD4215031094109510920
:100460005695479537952795E889F9893083EA8924
:10047000FB89208319A2EE89FF89408181E090E009
:100480009C010C8C02C0220F331F0A94E2F7422B0E
:100490004083EE89FF8940819C010D8C02C0220FB0
:1004A000331F0A94E2F7422B4083EE89FF89408193
:1004B0009C010E8C02C0220F331F0A94E2F7422BDC
:1004C0004083EE89FF8920810F8C02C0880F991F1D
:1004D0000A94E2F7809582238083DF91CF91FF9089
:1004E000EF90DF90CF9008951092700110926F01FD
:1004F00088EE93E0A0E0B0E08093710190937201E8
:10050000A0937301B093740184E591E090936E0120
:1005100080936D0183ED91E090937A01809379014E
:100520008FE891E090937C0180937B0185EC90E0D3
:1005300090937E0180937D0184EC90E09093800104
:1005400080937F0180EC90E0909382018093810101
:1005500081EC90E0909384018093830182EC90E0A1
:10056000909386018093850186EC90E090938801BA
:100570008093870184E08093890183E080938A01DE
:1005800087E080938B0185E080938C0181E08093EC
:100590008D010895C8D0CFDDC3EBD1E0D8DD209721
:1005A000E9F3E1DEFBCFCF92DF92EF92FF920F9360
:1005B0001F93CF93DF936C01EB017A01E60EF71ED8
:1005C00000E010E00BC06991D601ED91FC91019023
:1005D000F081E02DC6010995080F191FCE15DF0522
:1005E00091F7C801DF91CF911F910F91FF90EF908C
:1005F000DF90CF9008951F920F920FB60F921124A3
:100600002F933F938F939F93AF93BF938091170244
:1006100090911802A0911902B0911A0230911F0214
:10062000232F2D5F2D3720F40196A11DB11D05C08C
:10063000232F2A570296A11DB11D20931F028093DC
:10064000170290931802A0931902B0931A02809196
:100650001B0290911C02A0911D02B0911E020196F6
:10066000A11DB11D80931B0290931C02A0931D023B
:10067000B0931E02BF91AF919F918F913F912F91A7
:100680000F900FBE0F901F9018950F931F939FB759
:10069000F89400911B0210911C0220911D023091D0
:1006A0001E0286B5A89B06C08F3F21F00F5F1F4F2B
:1006B0002F4F3F4F9FBF322F212F102F0027080FA2
:1006C000111D211D311D42E0000F111F221F331F7C
:1006D0004A95D1F7B801C9011F910F910895CF92A2
:1006E000DF92EF92FF92CF93DF936B017C01CDDF1E
:1006F000EB010DC0CADF6C1B7D0B683E734038F008
:1007000081E0C81AD108E108F108C851DC4FC114D2
:10071000D104E104F10471F7DF91CF91FF90EF90E4
:10072000DF90CF900895789484B5826084BD84B5BD
:10073000816084BD85B5826085BD85B5816085BDDC
:10074000EEE6F0E0808181608083E1E8F0E01082F5
:10075000808182608083808181608083E0E8F0E036
:10076000808181608083E1EBF0E080818460808320
:10077000E0EBF0E0808181608083EAE7F0E0808157
:1007800084608083808182608083808181608083B7
:100790008081806880831092C100089584B5836849
:1007A00084BD17BC61E086E087C284B5836284BDE6
:1007B00018BC61E085E080C2CF93DF9360E08CE0FD
:1007C000B3D260E088E0B0D2C7E0D0E060E084E07F
:1007D000ABD28091200290E00C2E02C095958795B7
:1007E0000A94E2F780FF02C061E001C060E088E0A7
:1007F0009BD261E084E098D2219740F761E08CE0E1
:10080000DF91CF9191C2CF93DF93EC0161E08CE057
:1008100053D261E087E050D261E088E04DD261E0E0
:1008200084E04AD210922002CE01C6DF60E087E069
:10083000DF91CF9179C2E0EBF0E0908193689083F3
:1008400087708093B1001092B30061E08BE034C2F6
:10085000E0EBF0E090819362908387708093B10029
:100860001092B40061E083E027C2EF92FF920F93F1
:100870001F93CF93DF931F92CDB7DEB77C018B011F
:1008800081E292E04983BFDFF70111830083498150
:10089000428313864130F1F480912002817E80935F
:1008A000200281E292E088DF61E08BE005D261E026
:1008B00083E002D261E08BE037D261E083E034D2A2
:1008C00081E0B9DF81E0C4DF8FEF8093B3008093D4
:1008D000B4001BC04230C9F4809120028E71809315
:1008E000200281E292E068DF61E085E0E5D161E02D
:1008F00086E0E2D161E085E017D261E086E014D2C3
:100900004DDF53DF8FEF87BD88BD0F90DF91CF9113
:100910001F910F91FF90EF900895CF93DF93EC011B
:100920009B01A881B98136D29B01AC0160E077E8D8
:1009300083E993E03BD22B833C834D835E831F820C
:10094000188619861A86DF91CF910895CF93DF9389
:10095000EC01BA81B13041F0B23009F0CAC0A0E474
:1009600070E851E030E204C0A0E178E052E034E009
:100970009B85413019F493FF05C00DC0423049F406
:1009800093FF09C0613011F4905F01C090519B87C3
:1009900041C0433031F4613011F4985FF8CF985082
:1009A000F6CF4430B9F5613011F49F5F01C091502A
:1009B0009B872B852F732B87822F90E0203148F463
:1009C000E2E1F1E0E81BF90B2081FC01EE5FFE4F54
:1009D0001FC0622F6051603138F4FC01EE50FF4FB0
:1009E0002081E2E2F1E012C02052203148F4E2E33B
:1009F000F1E0E81BF90B2081FC01EE51FF4F08C02C
:100A0000FC01EE52FF4F2081E2E4F1E0E81BF90B1C
:100A1000908102C02FEF9FEF8B858F738B87B13052
:100A200029F42093B3009093B40004C0B23011F4C1
:100A300027BD98BD652F632B2A2F272B862F822B4E
:100A40008095909120028923809320029B854430D9
:100A500011F5903118F4862B80932002892F805154
:100A6000803130F4572B40912002452B40932002D7
:100A7000892F8052803128F480912002822B80932C
:100A800020029053903180F53A2B90912002932BC5
:100A90009093200229C09695969596959330A9F04B
:100AA00020F4913061F078F408C09530A9F090F00E
:100AB0009630A1F09730C1F413C0832B01C0862B70
:100AC0008093200211C0852BFBCF572B582B5093BE
:100AD00020020AC0872BF4CF822BF2CF8A2BF0CFD3
:100AE0003A2B382B3093200281E292E065DE8B8531
:100AF00001C080E0DF91CF9108955F926F927F9265
:100B00008F929F92AF92BF92CF92DF92EF92FF921D
:100B10000F931F93CF93DF93EC018B01942EA22EA2
:100B20006B817C818D819E8123E0A21211C09695FC
:100B300087957795679528EE33E040E050E036D111
:100B40006B017C01822E732E642E552EB12C3EC07B
:100B500024E0A212F0CF24E09695879577956795CB
:100B60002A95D1F734E0000F111F3A95E1F7E3CF52
:100B70004A2D692DCE01EADEB82E682D772D862DFF
:100B8000952DADDD8F819885A985BA858C0D9D1D2C
:100B9000AE1DBF1D8F839887A987BA87883E934073
:100BA000A105B10588F061E070E080E090E097DD9C
:100BB0008F819885A985BA85885E9340A109B1097E
:100BC0008F839887A987BA870150110901151105EC
:100BD00079F684E0A81233C011C061E070E080E0D3
:100BE00090E07DDD8F819885A985BA85885E9340E8
:100BF000A109B1098F839887A987BA87BB20F9F02B
:100C000020E1B216E1F044E0692DCE019FDEB82E5E
:100C1000682D772D862D952D62DD8F819885A9858C
:100C2000BA858C0D9D1DAE1DBF1D8F839887A9872A
:100C3000BA87883E9340A105B10500F3CECFDF917E
:100C4000CF911F910F91FF90EF90DF90CF90BF90C9
:100C5000AF909F908F907F906F905F9008951092CB
:100C600021020895833069F028F48130A1F08230A8
:100C700011F514C08630B1F08730C1F08430D9F45A
:100C800004C0809180008F7703C0809180008F7DA9
:100C900080938000089584B58F7702C084B58F7DDE
:100CA00084BD08958091B0008F7703C08091B0001B
:100CB0008F7D8093B0000895CF93DF9390E0FC0187
:100CC000E458FF4F4491FC01E057FF4F8491882383
:100CD00041F190E0880F991FFC01E255FF4F2591EB
:100CE0003491D9018C559F4FFC0185919491C82F67
:100CF000D92F9FB7F8948C91611106C04095842339
:100D00008C938881842308C0623041F4242F20957D
:100D100082238C938881842B888302C0842B8C93BC
:100D20009FBFDF91CF9108950F931F93CF93DF93D0
:100D30001F92CDB7DEB7282F30E0F901E859FF4FF9
:100D40008491F901E458FF4F1491F901E057FF4FE6
:100D500004910023C9F0882319F0698383DF698136
:100D6000E02FF0E0EE0FFF1FEC55FF4F85919491BF
:100D7000DC019FB7F8948C91611103C01095812319
:100D800001C0812B8C939FBF0F90DF91CF911F915A
:100D90000F910895A29FB001B39FC001A39F01D0FE
:100DA000B29F700D811D1124911D0895A1E21A2E8C
:100DB000AA1BBB1BFD010DC0AA1FBB1FEE1FFF1FFF
:100DC000A217B307E407F50720F0A21BB30BE40B4F
:100DD000F50B661F771F881F991F1A9469F7609596
:100DE0007095809590959B01AC01BD01CF01089550
:100DF000EE0FFF1F0590F491E02D0994F894FFCFBA
:100E000001000019324A62788DA2B4C5D4E1ECF435
:100E1000FAFDFF4368616E67696E672064697265F9
:100E20006374696F6E20746F20666F72776172648D
:100E3000004368616E67696E6720646972656374F8
:100E4000696F6E20746F206261636B7761726400FA
:100E5000000000003B01D302DD000C01F000300176
:00000001FF
