:100000005EC0000083C0000081C000007FC000000F
:100010007DC000007BC0000079C0000077C00000F8
:1000200075C0000073C0000071C00000C4C60000AD
:100030006DC000006BC0000069C0000067C0000018
:10004000CBC5000063C000001DC200005CC2000000
:100050005DC000005BC0000059C0000057C0000038
:100060000C94060D53C000000000000700020100C0
:100070000003040600000000000000000102040864
:100080001020408001020408102001020408102002
:10009000040404040404040402020202020203032E
:1000A0000303030300000000250028002B000000CC
:1000B0000000240027002A00E2003F03390B11242E
:1000C0001FBECFEFD8E0DEBFCDBF11E0A0E0B1E0B2
:1000D000E0ECF9E202C005900D92A03FB107D9F71C
:1000E00014E0A0EFB1E001C01D92A432B107E1F726
:1000F00010E0CEEBD0E004C02297FE010E94DA149B
:10010000C83BD107C9F711D30C94DE1479CF4091C5
:100110000A0161E080914302909144020C94B2097B
:1001200040910A0162E080914302909144020C9454
:10013000B20940910A0161E0809145029091460226
:100140000C94B20940910A0162E0809145029091BD
:1001500046020C94B20960E476E087E492E00E94E3
:10016000D2086AE070E080E492E080D764EB70E04F
:1001700080E492E0B3D740E050E062E073E487E1CE
:1001800092E00E94C21040E050E062E073E480EF31
:1001900091E00E94C21040E050E060E870E487E126
:1001A00092E00E94C81040E050E060E870E480EF08
:1001B00091E00E94C81040E855E260E070E08BE8F2
:1001C00092E0DCC160E687E492E00E946D0941E0C4
:1001D00068EC70E087E492E00E941909909346026F
:1001E0008093450242E068EC70E087E492E00E9470
:1001F0001909909344028093430280E492E099D6D7
:1002000049E950E062EA70E087E192E00E94221042
:1002100040E950E067E870E080EF91E00C94221034
:100220008BE892E093D01816190604F58BE892E05B
:10023000BCD090933F0280933E026DE171E08BE869
:1002400092E0BAD260913E0270913F024AE050E0E3
:100250008BE892E0A5D360913E0270913F026270FC
:1002600077274AE050E08BE892E09AD380913E02F3
:1002700080FF0AC066E371E08BE892E0B9D24AE001
:1002800050E060E070E00FC081FF0AC061E471E0FF
:100290008BE892E0ADD246EF5FEF6FEF7FEF03C0E8
:1002A00040E050E0BA0180EF91E00E949010809110
:1002B0003E0282FF0AC06EE471E08BE892E098D2C1
:1002C0004AE050E060E070E00FC083FF0AC06BE5D9
:1002D00071E08BE892E08CD246EF5FEF6FEF7FEF3B
:1002E00003C040E050E0BA0187E192E00E94901024
:1002F00080913E0284FF05C069E671E08BE892E0E0
:1003000077D280913E0285FF19C06BE771E08BE8E0
:1003100092E06ED260E070E080E492E0DFD668EEBA
:1003200073E080E090E0DED464EB70E080E492E083
:10033000D5D668EE73E080E090E0D4D487E192E017
:100340000E94A21080EF91E00C94A210FC01848521
:100350009585FC01E05CFF4F20813181FC01EE5B63
:10036000FF4F80819181281B390B2F733327C901DF
:100370000895FC0184859585FC01E05CFF4F408178
:100380005181FC01EE5BFF4F208131814217530701
:1003900041F00190F081E02DE80FF91F208130E05D
:1003A00002C02FEF3FEFC9010895FC0184859585B8
:1003B000FC01E05CFF4F40815181FC01EE5BFF4F8F
:1003C000208131814217530781F0A081B181A80FAC
:1003D000B91F8C91208131812F5F3F4F2F733327BD
:1003E00031832083282F30E002C02FEF3FEFC90177
:1003F0000895FC0181A1882329F0A489B5898C91F5
:1004000086FFFBCF11A20895CF93DF93FC012685D1
:100410003785D901A05CBF4F8D919C9111970196B2
:100420008F739927E901CE5BDF4F4881598184178B
:100430009507D9F30D90BC91A02DA20FB31F6C931B
:10044000A685B785A05CBF4F11969C938E93A68915
:10045000B7892C9181E090E0078C02C0880F991F2A
:100460000A94E2F7282B2C9381E081A30488F58974
:10047000E02D80818064808381E090E0DF91CF91E6
:10048000089508951F920F920FB60F9211242F9383
:100490003F934F938F939F93EF93FF938091C0006F
:1004A00082FD1CC04091C6008091310390913203BF
:1004B00001968F739927209133033091340382176B
:1004C000930771F0E0913103F0913203EF50FD4F4B
:1004D0004083909332038093310302C08091C60021
:1004E000FF91EF919F918F914F913F912F910F909D
:1004F0000FBE0F901F9018958BE892E027DF892B95
:1005000009F0BFCF08951F920F920FB60F921124DA
:100510002F933F938F939F93EF93FF932091ED023F
:100520003091EE028091EF029091F0022817390786
:1005300031F48091C1008F7D8093C10014C0E0919F
:10054000EF02F091F002E355FD4F20818091EF0220
:100550009091F00201968F7399279093F002809307
:10056000EF022093C600FF91EF919F918F913F91F1
:100570002F910F900FBE0F901F901895CF92DF9282
:10058000EF92FF92CF93DF93EC016A017B0141155B
:1005900081EE580761057105F9F0EC89FD8981E06C
:1005A00090E008A002C0880F991F0A94E2F78083A8
:1005B00060E079E08DE390E0A70196010E9490143D
:1005C000215031094109510956954795379527958D
:1005D000211580E1380798F0EC89FD89108260E8E8
:1005E00074E88EE190E0A70196010E9490142150DA
:1005F0003109410951095695479537952795E8895D
:10060000F9893083EA89FB89208319A2EE89FF8961
:10061000408181E090E09C010C8C02C0220F331FCE
:100620000A94E2F7422B4083EE89FF8940819C01C6
:100630000D8C02C0220F331F0A94E2F7422B408335
:10064000EE89FF8940819C010E8C02C0220F331F6E
:100650000A94E2F7422B4083EE89FF8920810F8CB8
:1006600002C0880F991F0A94E2F780958223808345
:10067000DF91CF91FF90EF90DF90CF90089510928F
:100680008E0210928D0288EE93E0A0E0B0E080939D
:100690008F0290939002A0939102B093920286E809
:1006A00091E090938C0280938B0281EF92E0909383
:1006B0009802809397028DEA92E090939A02809339
:1006C000990285EC90E090939C0280939B0284ECCD
:1006D00090E090939E0280939D0280EC90E0909336
:1006E000A00280939F0281EC90E09093A2028093FD
:1006F000A10282EC90E09093A4028093A30286EC86
:1007000090E09093A6028093A50284E08093A702D4
:1007100083E08093A80287E08093A90285E080931C
:10072000AA0281E08093AB0208950AD314DDCCE7DE
:10073000D2E076DD2097E9F3DFDEFBCFCF92DF92C8
:10074000EF92FF920F931F93CF93DF936C01EB0116
:100750007A01E60EF71E00E010E00BC06991D601A9
:10076000ED91FC910190F081E02DC6010995080FF3
:10077000191FCE15DF0591F7C801DF91CF911F91A9
:100780000F91FF90EF90DF90CF9008956115710564
:1007900081F0DB010D900020E9F7AD0141505109D6
:1007A000461B570BDC01ED91FC910280F381E02D9B
:1007B000099480E090E00895E9CFDC01ED91FC918F
:1007C0000190F081E02D09940F931F93CF93DF9355
:1007D000EC016DE0F2DF8C016AE0CE01EEDF9C01FE
:1007E000200F311FC901DF91CF911F910F91089503
:1007F0000F931F93CF93DF93EC01C8DF8C01CE01E1
:10080000E3DF9801280F391FC901DF91CF911F91B4
:100810000F9108954F925F926F927F929F92AF9245
:10082000BF92CF92DF92EF92FF920F931F93CF93DD
:10083000DF93CDB7DEB7A1970FB6F894DEBF0FBE3A
:10084000CDBF5C016A017B01922E19A281E0821763
:1008500010F08AE0982E8E010F5D1F4F492C512C0D
:10086000612C712CC701B601A30192010E94901462
:100870008C2D929E80191124015011098A3014F494
:10088000805D01C0895CF801808369017A01C1142F
:10089000D104E104F10431F7B801C50177DFA19675
:1008A0000FB6F894DEBF0FBECDBFDF91CF911F9181
:1008B0000F91FF90EF90DF90CF90BF90AF909F90FF
:1008C0007F906F905F904F9008952115310541F40E
:1008D000DC01ED91FC910190F081E02D642F0994F1
:1008E00099CF0F931F93CF93DF93EC019A01462F7B
:1008F00050E060E070E0E9DF8C01CE0165DF980137
:10090000280F391FC901DF91CF911F910F910895D1
:10091000CF92DF92EF92FF920F931F93CF93DF93CB
:10092000EC016A017B012115310579F4E881F98137
:100930000190F081E02D642FDF91CF911F910F91F5
:10094000FF90EF90DF90CF9009942A30310519F491
:1009500077FD0DC02AE0B701A601CE01DF91CF914E
:100960001F910F91FF90EF90DF90CF9053CF6DE2EA
:1009700024DF8C0144275527BA014C195D096E0903
:100980007F092AE0CE0146DF080F191FC801DF9159
:10099000CF911F910F91FF90EF90DF90CF9008952E
:1009A0000F931F93CF93DF93EC019A01AB0166275E
:1009B00057FD6095762FACDF8C01CE0105DF9801E5
:1009C000280F391FC901DF91CF911F910F91089511
:1009D0007F928F929F92AF92BF92CF92DF92EF92CF
:1009E000FF920F931F93CF93DF93EC016A017B017A
:1009F000122F9A01AB01C701B6010E945B14882334
:100A000019F062E971E032C046015701E894B7F885
:100A10002FEF3FEF4FE75FE7C501B4010E945B1482
:100A200081110DC02FEF3FEF4FE75FE7C501B40124
:100A30000E94101218161CF466E971E017C02FEF1F
:100A40003FEF4FE75FE4C701B6010E94B2131816EB
:100A50000CF40AC02FEF3FEF4FE75FECC701B60180
:100A60000E94101287FF11C06AE971E0CE01DF9188
:100A7000CF911F910F91FF90EF90DF90CF90BF909B
:100A8000AF909F908F907F9081CE20E030E0A901C1
:100A9000C701B6010E94101287FF09C06DE2CE01A6
:100AA0008CDE5C01F7FAF094F7F8F09402C0A12C08
:100AB000B12C00E060E070E080E09FE307C020E040
:100AC00030E040E251E40E9414120F5F0113F7CFAF
:100AD000262F372F482F592FC701B6010E94AC117E
:100AE000762E872E982EC92E0E948112D62EE72EA2
:100AF000F82E092F0E94AD129B01AC01672D782DB5
:100B0000892D9C2D0E94AB11C62E972E882E792EF2
:100B10002AE04D2D5E2D6F2D702FCE017BDE7C01E6
:100B2000EA0CFB1C1123A9F16EE971E0CE012EDE67
:100B3000E80EF91E2EC020E030E040E251E46C2DBA
:100B4000792D882D972D0E94B613762E072F6C01D4
:100B50009D2D0E947C124B01AA2497FCA094BA2CD4
:100B60002AE030E0B501A401CE01D2DEE80EF91E84
:100B7000C501B4010E94AF129B01AC01672D702F1B
:100B80008C2D9D2D0E94AB11C62E972E882E792E6E
:100B900011501111D0CFC701DF91CF911F910F914B
:100BA000FF90EF90DF90CF90BF90AF909F908F908D
:100BB0007F9008950F931F93CF93DF93EC0108DF8D
:100BC0008C01CE0101DE9801280F391FC901DF9188
:100BD000CF911F910F9108951F920F920FB60F9210
:100BE00011242F933F938F939F93AF93BF93809143
:100BF000350390913603A0913703B09138033091BB
:100C00003D03232F2D5F2D3720F40196A11DB11D2B
:100C100005C0232F2A570296A11DB11D20933D0325
:100C20008093350390933603A0933703B093380332
:100C30008091390390913A03A0913B03B0913C031A
:100C40000196A11DB11D8093390390933A03A0939F
:100C50003B03B0933C03BF91AF919F918F913F9124
:100C60002F910F900FBE0F901F9018950F931F9309
:100C70008FB7F89400913503109136032091370314
:100C8000309138038FBFB801C9011F910F910895AA
:100C90000F931F939FB7F8940091390310913A0373
:100CA00020913B0330913C0386B5A89B06C08F3F43
:100CB00021F00F5F1F4F2F4F3F4F9FBF322F212F2C
:100CC000102F0027080F111D211D311D42E0000FBC
:100CD000111F221F331F4A95D1F7B801C9011F9177
:100CE0000F910895CF92DF92EF92FF92CF93DF930F
:100CF0006B017C01CDDFEB010DC0CADF6C1B7D0BEE
:100D0000683E734038F081E0C81AD108E108F10864
:100D1000C851DC4FC114D104E104F10471F7DF9133
:100D2000CF91FF90EF90DF90CF900895019739F029
:100D3000880F991F880F991F02970197F1F708955F
:100D4000789484B5826084BD84B5816084BD85B5A6
:100D5000826085BD85B5816085BDEEE6F0E080816D
:100D600081608083E1E8F0E010828081826080838E
:100D7000808181608083E0E8F0E080818160808311
:100D8000E1EBF0E0808184608083E0EBF0E0808143
:100D900081608083EAE7F0E08081846080838081E5
:100DA000826080838081816080838081806880838D
:100DB0001092C10008951F920F920FB60F92112446
:100DC0002F933F934F935F936F937F938F939F9353
:100DD000AF93BF93EF93FF9380913F0387FF05C0CD
:100DE00010928500109284001AC020913F0333278F
:100DF00027FD309580913E0390E0281739077CF459
:100E000080913F03992787FD9095FC01EE0FFF1F0E
:100E1000E80FF91FE05CFC4F808186FD37C08091B0
:100E20003F038F5F80933F0320913F03332727FDCC
:100E3000309580913E0390E028173907CCF58091DA
:100E40003F038C30F4F134C080913F03992787FD34
:100E50009095FC01EE0FFF1FE80FF91FE05CFC4FBF
:100E6000808161E08F730E94751152C080E49CE91B
:100E700005C080918400909185000496909389002C
:100E8000809388008FEF80933F0342C080913F039F
:100E9000992787FD9095FC01EE0FFF1FE80FF91FC2
:100EA000E05CFC4F808160E08F730E947511B7CFCA
:100EB0008091840090918500049680349C49B0F222
:100EC000D8CF809184009091850020913F033327F3
:100ED00027FD3095F901EE0FFF1FE20FF31FE05CD5
:100EE000FC4F21813281820F931F90938900809360
:100EF000880080913F03992787FD9095FC01EE0FB4
:100F0000FF1FE80FF91FE05CFC4F808186FD9CCF3E
:100F1000FF91EF91BF91AF919F918F917F916F91D1
:100F20005F914F913F912F910F900FBE0F901F90A7
:100F3000189520913E032C30A0F4FC012083822FD1
:100F40008F5F80933E03822F90E0FC01EE0FFF1F26
:100F5000E80FF91FE05CFC4F88EB9BE092838183F4
:100F600008952FEFFC0120830895DF92EF92FF9206
:100F70000F931F93CF93DF93EC01D62E7A01890153
:100F800088818C3008F065C061E08D2D0E943D1194
:100F90008881A82FB0E0FD01EE0FFF1FEA0FFB1FB5
:100FA000E05CFC4F2D2D2F739081907C922B9083D1
:100FB00060E272E06E197F0977FF02C06D5F7F4FBC
:100FC0007595679575956795698340E659E0401B6F
:100FD000510B57FF02C04D5F5F4F55954795559593
:100FE00047954A836CE00E9484149CE0899FB0017D
:100FF000112420E030E0A901460F571FFA01EE0F3F
:10100000FF1FE40FF51FE05CFC4F908196FD15C0BB
:101010002F5F3F4F2C30310571F71DC010928000BB
:1010200082E0809381001092850010928400B19A32
:1010300080916F00826080936F00888190E0FC0156
:10104000EE0FFF1FE80FF91FE05CFC4F808180640A
:101050008083888103C0882309F3EFCFDF91CF918C
:101060001F910F91FF90EF90DF90089520E639E0F7
:1010700040E252E07ACFFC0180818C3070F59181A2
:1010800028E830E0291B310997FD3395220F331FE3
:10109000220F331F621773077CF0928128E532E03C
:1010A000291B310997FD3395220F331F220F331F60
:1010B000621773070CF49B014FB7F89490E0FC01A2
:1010C000EE0FFF1FE80FF91FE05CFC4F22503109C3
:1010D000220F331F328321834FBF0895AF92BF92F7
:1010E000CF92DF92EF92FF920F931F93CF93DF93F4
:1010F000EC01603282E078070CF041C077FD04C05B
:10110000653B710524F405C060E070E002C064EB4B
:1011100070E0298188E890E0821B910927FD939572
:10112000880F991F880F991F5C01CC24B7FCC094CD
:10113000DC2C882777FD8095982F2A8148E552E09E
:10114000421B510927FD5395440F551F440F551F4E
:101150008A01222717FD2095322F3F932F931F934B
:101160000F9314EBE12EF12C00E010E020E030E0D2
:10117000A9010E94CE100F900F900F900F90CE01FA
:10118000DF91CF911F910F91FF90EF90DF90CF9063
:10119000BF90AF9070CF20E030E040E050E08D5B3A
:1011A0009F4F74C2EF92FF920F931F93CF93DF93E1
:1011B0008C017B0184E693E027D2E801CD5BDF4F11
:1011C000CE01C6D2F801F282E182B70180E090E060
:1011D0000E94AD12AB01BC01CE01E0D210E020E0D4
:1011E00030E040E050E0612FCE0150D21F5F10315F
:1011F000B1F7DF91CF911F910F91FF90EF9008957C
:101200009A018D5B9F4F211540E1340728F020E0C3
:1012100030E040E050E102C040E050E037C2411110
:1012200001C0B9CF20E030E040E050E18D5B9F4F3E
:101230002DC2FF920F931F93CF93DF939C014330F6
:10124000E0F54150A42FB0E0FC0184E1489FE00D9F
:10125000F11D112486A5811126C046A772A761A79A
:1012600035A724A7442351F0413079F456E0C5E076
:10127000D3E014E007E082E0F82E07C05CE0CBE0AA
:10128000D9E01AE00DE098E0F92E84E18A9FF001A0
:101290008B9FF00D1124E20FF31FF3A206A314A3FA
:1012A000D5A3C7A350A744E14A9FC0014B9F900D0F
:1012B00011244B96820F931F02C080E090E0DF91D3
:1012C000CF911F910F91FF900895FC01148213821A
:1012D00015821282118210820895BF92CF92DF92FE
:1012E000EF92FF920F931F93CF93DF931F92CDB78F
:1012F000DEB78C01B62E7C0183E0E80EF11C68019C
:10130000EBE1CE0ED11CC701E0DFF6E0EF0EF11CE1
:10131000EC14FD04C1F7F80113A616A612A611A637
:1013200017AEEE5BFF4F1082F80116AE15AE7801D6
:10133000F3E4EF0EF11C60E4C701A5D1F801B0821F
:101340006B2DCE0101969FD18981F70180830F908B
:10135000DF91CF911F910F91FF90EF90DF90CF9091
:10136000BF9008950F931F93CF93DF93EC01142F39
:101370008889413019F483FF05C00DC0423049F41B
:1013800083FF09C0613011F4805F01C08051888BF8
:1013900041C0433031F4613011F4885FF8CF885098
:1013A000F6CF4430B9F5613011F48F5F01C0815040
:1013B000888B28892F73288B822F90E0203148F466
:1013C000ECE1F1E0E81BF90B2081FC01E45FFE4F4A
:1013D0001FC030EF320F303138F4FC01E450FF4FC2
:1013E0002081ECE2F1E012C02052203148F4ECE31D
:1013F000F1E0E81BF90B2081FC01E451FF4F08C02C
:10140000FC01E452FF4F2081ECE4F1E0E81BF90B12
:10141000008102C02FEF0FEF88898F73888B80E1E6
:10142000289FA0011124688589899A89E9DE80E1D5
:10143000089FA00111246B8589899A89E1DEE889DA
:101440001430A1F4E03110F010E001C013E080EF9F
:101450008E0F803108F4166080EE8E0F803108F414
:101460001C60E053E03168F419600BC0E695E69526
:10147000E695E83028F4F0E0E056FE4F108101C018
:1014800010E089899A8910FF04C041E06A85C7DEAF
:1014900002C06A8580DE89899A8911FF04C041E013
:1014A0006C85BDDE02C06C8576DE89899A8912FF63
:1014B00004C041E06985B3DE02C069856CDE8989BC
:1014C0009A8913FF04C041E06D85A9DE02C06D85D5
:1014D00062DE8889DF91CF911F910F9108958091ED
:1014E000940390E020919503821B91090895209127
:1014F000950380919403281750F4E22FF0E0EA5608
:10150000FC4F808190E02F5F2093950308958FEF2B
:101510009FEF0895E091950380919403E81730F4CC
:10152000F0E0EA56FC4F808190E008958FEF9FEF46
:1015300008950895CF92DF92EF92FF920F931F9339
:10154000CF93DF937C01CB018A012091700322238A
:1015500089F0EB016B01C40ED51ECC15DD0561F0E1
:101560006991D701ED91FC910190F081E02DC701C7
:101570000995F3CF642F21D2C801DF91CF911F913C
:101580000F91FF90EF90DF90CF900895CF93DF936E
:101590001F92CDB7DEB76983209170032223D1F06B
:1015A00020917103203240F021E030E0FC013383D0
:1015B000228380E090E014C080917203E82FF0E075
:1015C000ED58FC4F998190838F5F809372038093D5
:1015D000710304C061E0CE010196EFD181E090E09B
:1015E0000F90DF91CF910895FC011382128248EE93
:1015F00053E060E070E044835583668377838CEA30
:1016000091E0918380830895109295031092940342
:1016100010927203109271031DC1862F413208F09F
:1016200040E266E973E032D110929503809394030F
:10163000089521E0F2CF81E08093700360939303DB
:10164000109272031092710308950F93062F21E0F8
:101650004091710363E773E0809193035BD1109233
:10166000720310927103109270030F91089561E05C
:10167000ECCF84E693E0B8CFDC01ED91FC910190D2
:10168000F081E02D0994FC0160830895FF920F938F
:101690001F93CF93DF9300D0CDB7DEB7162FF52E73
:1016A000032FFC01608184E693E02A834983C3DF32
:1016B000E0916403F091650384E0189FB001112468
:1016C0006A5F7F4F0190F081E02D84E693E00995F9
:1016D0004981642F7F2D84E693E0CEDF6F2D70E08B
:1016E00084E693E0C9DF2A81622F702F84E693E0BD
:1016F000C3DF602F70E084E693E0BEDF84E693E012
:101700000F900F90DF91CF911F910F91FF90AFCF6E
:101710001F93CF93DF931F92CDB7DEB7162FFC0137
:10172000608184E693E0498386DF612F84E693E05D
:101730002DDF4981642F84E693E028DF84E693E07F
:101740000F90DF91CF911F9192CF40E060E0E0CF0A
:10175000CF93DF93EC0184E693E056DFCE01DF9177
:10176000CF91F3CF1F93CF93DF93EC01162F6881B6
:1017700084E693E060DF612F84E693E007DF84E690
:1017800093E075DF41E0688184E693E052DF84E610
:1017900093E0ADDEDF91CF911F910895CF92DF925C
:1017A000EF92FF921F93CF93DF93EC019A01AB016D
:1017B00060E27CEB8EEB95E437D620E030E040E849
:1017C0005FE3C9D56B017C0168EB71E08BE892E0C7
:1017D0000E94DC0322E030E0B701A6018BE892E032
:1017E000E9D920E030E040E05FE3C701B601B4D5BD
:1017F000F1D687D6F62E6EEC71E08BE892E00E946F
:10180000DC034AE050E06F2D8BE892E06AD860E09C
:10181000CE01A8DF182F482F4F76406160E0CE013F
:1018200077DF4F2D6EEFCE0173DF412F60E0CE01E9
:101830006FDF65E070E080E090E054DA412F416AAC
:1018400060E0CE01DF91CF911F91FF90EF90DF908C
:10185000CF905ECF1092230481E0809321041092F8
:10186000200461E082E141D561E083E13ED5E9EB0E
:10187000F0E080818E7F808380818D7F808388E40B
:101880008093B80085E48093BC000895413208F04D
:101890003FC0909123049111FCCF91E090932304D9
:1018A000209321042FEF2093B6031092FB03240F03
:1018B0002093FA039093220490912204880F892B9D
:1018C0008093220480912004813041F410922004FE
:1018D000809122048093BB0085EC01C085EE80934B
:1018E000BC00809123048130E1F38091FB038417D5
:1018F00010F44091FB032CEF33E0FB01D9018A2F58
:10190000821B841718F48D918193F9CF842F089549
:1019100080E008950F93413208F046C0909123046F
:101920009111FCCF92E090932304009321049FEF48
:101930009093B6031092FB034093FA03FB016CEF04
:1019400073E0DB019A2F961B941718F491919D93E5
:10195000F9CF1092220490912204880F892B809352
:10196000220480912004813041F41092200480915F
:1019700022048093BB0085EC01C085EE8093BC00FF
:10198000222321F0809123048230E1F38091B60379
:101990008F3F61F08091B603803251F08091B603A1
:1019A000803341F483E007C081E005C080E003C0DC
:1019B00082E001C084E00F910895613298F4209193
:1019C0002304243089F46093D803FC018AED93E06A
:1019D000DC012A2F281B261718F421912D93F9CF0B
:1019E00080E0089581E0089582E0089585ED809378
:1019F000BC008091BC0084FDFCCF109223040895AC
:101A000085EC8093BC001092230408951F920F92DE
:101A10000FB60F9211242F933F934F935F936F93C1
:101A20007F938F939F93AF93BF93EF93FF93809197
:101A3000B900887F803609F49CC068F5883209F4C3
:101A40005BC090F4803109F454C038F4882309F461
:101A5000F3C0883009F44DC0F2C0883109F44CC09D
:101A6000803209F45DC0EBC0803409F468C048F4EA
:101A7000803309F455C0883309F0E1C08093B60380
:101A8000A7C0803509F44FC0883509F45DC088349B
:101A900009F0D5C0D3C0883909F4C4C0A8F4883788
:101AA00009F467C038F4883609F463C0803709F454
:101AB00060C0C5C0883809F4B5C0803909F45FC07A
:101AC000803809F0BCC05BC0803B09F483C038F4A7
:101AD000803A09F466C0883A09F47CC0B0C0803C02
:101AE00009F4A4C0883C09F4A1C0883B09F487C06C
:101AF000A6C08091220410C09091FB038091FA034C
:101B0000981770F5E091FB0381E08E0F8093FB0343
:101B1000F0E0E450FC4F80818093BB0085EC83C0F3
:101B20008093B6038BC0E091FB0381E08E0F80931E
:101B3000FB038091BB00F0E0E450FC4F8083909168
:101B4000FB038091FA036BC0E091FB0381E08E0FF1
:101B50008093FB038091BB00F0E0E450FC4F808356
:101B60008091210481116AC081E08093200484EA7D
:101B70005EC083E0809323041092B703CFCF80919F
:101B8000B703803208F04EC0E091B70381E08E0FBA
:101B90008093B7038091BB00F0E0E854FC4F808352
:101BA000BDCF8091B703803230F4E091B703F0E00D
:101BB000E854FC4F10821ADF6091B70370E0E091A7
:101BC0001C04F0911D0488EB93E009951092B70373
:101BD00017DF35C084E0809323041092D90310925C
:101BE000D803E0911E04F0911F0409958091D80359
:101BF000811105C081E08093D8031092DA03E0914F
:101C0000D90381E08E0F8093D903F0E0E652FC4FB8
:101C100080818093BB009091D9038091D80398175D
:101C200008F47CCF85E88093BC0009C085EC8093E4
:101C3000BC001092230403C01092B603D7DEFF91BC
:101C4000EF91BF91AF919F918F917F916F915F9134
:101C50004F913F912F910F900FBE0F901F901895AD
:101C60008F929F92AF92BF92CF92DF92EF92FF92AC
:101C7000CF93DF93EC016B857C858D859E85CF802E
:101C8000D884E984FA846C197D098E099F0909F4C6
:101C9000AEC06AF064D49B01AC015ED32F89388D4D
:101CA000498D5A8D63D5C9D54B015C0117C09095FC
:101CB0008095709561957F4F8F4F9F4F50D49B01BA
:101CC000AC014AD32F89388D498D5A8D4FD5B5D562
:101CD0004B015C01B7FAB094B7F8B094CF84D888C0
:101CE000E988FA88A7019601C501B4013BD5181609
:101CF000ACF520E030E0A901C701B60191D3811114
:101D000009C06F89788D898D9A8D9B01AC0124D390
:101D100094D515C0A70196016F89788D898D9A8D0C
:101D200083D34B015C0120E030E0A9011BD5A50164
:101D3000940118160CF05058C701B6010DD36B0171
:101D40007C019B88AC88BD88CE89292D3A2D4B2DEE
:101D50005C2F08D518160CF44FC044C0A70196019B
:101D6000C501B4015DD387FF4CC020E030E0A9017C
:101D7000C701B60155D381110FC06F89788D898D48
:101D80009A8D9B01AC01E8D258D56B017C01F7FA22
:101D9000F094F7F8F09417C0A70196016F89788D39
:101DA000898D9A8D41D34B015C0120E030E0A9017F
:101DB000D9D4A501940118160CF05058C701B601EA
:101DC000CAD26B017C018B889C88AD88BE88B7FA2B
:101DD000B094B7F8B094A5019401C701B60120D31F
:101DE00087FD0FC05C2D4D2D3E2D2F2D0EC050E0D8
:101DF00040E030E020E009C0592D4A2D3B2D2C2F2A
:101E000004C0582D492D3A2D2B2D652F742F832F6B
:101E1000922FDF91CF91FF90EF90DF90CF90BF9006
:101E2000AF909F908F900895CF93DF93EC01613036
:101E300079F048F06230B9F0633019F561E08B81D8
:101E400054D260E014C061E08B814FD260E004C0E6
:101E500060E08B814AD261E08C8147D261E08D8164
:101E600044D260E00AC060E08B813FD261E08C81A7
:101E70003CD260E08D8139D261E08E81DF91CF91DB
:101E800034C2DF91CF9108951F93CF93DF93EC017C
:101E900011E020E030E0A9016F85788989899A896D
:101EA00061D418160CF010E0612F8C811ED261E015
:101EB0008B811BD281E090E00E94960660E08B81CE
:101EC000DF91CF911F9111C2DC0112962C9121302C
:101ED00069F028F0223089F02430B1F00895DC0157
:101EE000ED91FC910280F381E02D0994DC01ED91EC
:101EF000FC910480F581E02D0DC0DC01ED91FC9199
:101F00000680F781E02D06C0DC01ED91FC91008494
:101F1000F185E02D0994CF93DF93EC0120E030E0D0
:101F2000A9016F85788989899A891CD418161CF4AF
:101F3000EBA1FCA102C0EDA1FEA1DF91CF9109941C
:101F4000CF93DF93EC01613049F030F0623059F00B
:101F5000633089F460E008C060E001C061E08B811B
:101F6000C4D161E004C061E08B81BFD160E08C81AD
:101F7000DF91CF91BAC1DF91CF9108958F929F9257
:101F8000AF92BF92CF92DF92EF92FF92CF93DF9307
:101F9000EC010E9436066B017C014B8D5C8D6D8DD2
:101FA0007E8D8F8C98A0A9A0BAA0480D591D6A1DDE
:101FB0007B1D4C155D056E057F05C0F58F849888E7
:101FC000A988BA8820E030E0A901C501B401CAD3CC
:101FD00018164CF44F81588569857A854F5F5F4F9D
:101FE0006F4F7F4F10C020E030E0A901C501B40160
:101FF00017D287FF0CC04F81588569857A8541507B
:102000005109610971094F83588769877A87E88187
:10201000F9816F8163700190F081E02DCE01099507
:10202000CF8ED8A2E9A2FAA281E001C080E0DF91C0
:10203000CF91FF90EF90DF90CF90BF90AF909F90A7
:102040008F9008950F931F93FC0184EE91E091838C
:102050008083128217821086118612861386148658
:10206000158616861786108A118A128A00E010E0FB
:1020700020E83FE3038B148B258B368B078B108F67
:10208000218F328F138E148E158E168E178E10A2FE
:1020900011A212A2138214821582168274A363A362
:1020A00056A345A31F910F910895CF92DF92EF920F
:1020B000FF92CF93DF93EC014F87588B698B7A8B1C
:1020C0009A01AB0160E070E08AE794E4ADD16B0166
:1020D0007C0120E030E0A90145D318161CF4C701AB
:1020E000B60103C0C701B60190580BD26B8F7C8F2D
:1020F0008D8F9E8FDF91CF91FF90EF90DF90CF90EB
:102100000895CF93DF93EC01E881F9810284F38590
:10211000E02D0995AB01BC01CE01DF91CF91C5CF78
:102120000F931F93FC010781108521853285040FD1
:10213000151F261F371F03871487258736871F9192
:102140000F91DFCF0F931F93CF93DF93EC010B859C
:102150001C852D853E854F81588569857A850417B4
:1021600015072607370731F009DF882329F0CE014C
:10217000C8DF02C080E001C081E0DF91CF911F91F4
:102180000F910895FC01438B548B658B768BB9CFEF
:10219000FC01478B508F618F728FB3CF4F925F924C
:1021A0006F927F92AF92BF92CF92DF92EF92FF92A7
:1021B0000F931F93CF93DF93CDB7DEB729013A0179
:1021C000621B730B840B950B29893A894B895C89B7
:1021D0002A193B094C095D09298B3A8B4B8B5C8B87
:1021E0009B01AC0169897A898B899C897ED3E4182B
:1021F000F50806091709A8019701B4D32A0D3B1D5C
:102200004C1D5D1DB901CA01DF91CF911F910F9146
:10221000FF90EF90DF90CF90BF90AF907F906F9046
:102220005F904F900895833069F028F48130A1F0D9
:10223000823011F514C08630B1F08730C1F084309F
:10224000D9F404C0809180008F7703C08091800012
:102250008F7D80938000089584B58F7702C084B508
:102260008F7D84BD08958091B0008F7703C08091E9
:10227000B0008F7D8093B0000895CF93DF9390E0FE
:10228000FC01E458FF4F4491FC01E057FF4F84915B
:10229000882341F190E0880F991FFC01E255FF4F20
:1022A00025913491D9018C559F4FFC0185919491D2
:1022B000C82FD92F9FB7F8948C91611106C0409513
:1022C00084238C938881842308C0623041F4242FB6
:1022D000209582238C938881842B888302C0842B51
:1022E0008C939FBFDF91CF9108950F931F93CF934E
:1022F000DF931F92CDB7DEB7282F30E0F901E85900
:10230000FF4F8491F901E458FF4F1491F901E05710
:10231000FF4F04910023C9F0882319F0698383DFFC
:102320006981E02FF0E0EE0FFF1FEC55FF4F859124
:102330009491DC019FB7F8948C91611103C01095C2
:10234000812301C0812B8C939FBF0F90DF91CF9190
:102350001F910F9108955058BB27AA270ED0B1C1E5
:10236000A2D130F0A7D120F031F49F3F11F41EF438
:1023700097C10EF4E095E7FB64C1E92FB3D180F378
:10238000BA17620773078407950718F071F49EF572
:10239000E2C10EF4E0950B2EBA2FA02D0B01B9016E
:1023A00090010C01CA01A0011124FF27591B99F0CB
:1023B000593F50F4503E68F11A16F040A22F232FD7
:1023C000342F4427585FF3CF469537952795A79527
:1023D000F0405395C9F77EF41F16BA0B620B730BCE
:1023E000840BBAF09150A1F0FF0FBB1F661F771F3F
:1023F000881FC2F70EC0BA0F621F731F841F48F4F4
:10240000879577956795B795F7959E3F08F0B3CF79
:102410009395880F08F09927EE0F97958795089563
:10242000ECD008F481E008950CD04BC143D140F0CA
:102430003AD130F021F45F3F19F003C151118CC142
:102440002FC150D198F39923C9F35523B1F3951BAC
:10245000550BBB27AA2762177307840738F09F5FC5
:102460005F4F220F331F441FAA1FA9F333D00E2E34
:102470003AF0E0E830D091505040E695001CCAF7A1
:1024800029D0FE2F27D0660F771F881FBB1F261766
:1024900037074807AB07B0E809F0BB0B802DBF0139
:1024A000FF2793585F4F2AF09E3F510568F0C9C03F
:1024B00053C15F3FECF3983EDCF3869577956795C3
:1024C000B795F7959F5FC9F7880F911D96958795EA
:1024D00097F90895E1E0660F771F881FBB1F621709
:1024E00073078407BA0720F0621B730B840BBA0BC7
:1024F000EE1F88F7E095089504D06894B1112CC1BF
:102500000895F8D088F09F5790F0B92F9927B751C8
:10251000A0F0D1F0660F771F881F991F1AF0BA95A7
:10252000C9F712C0B13081F016D1B1E0089513C1DE
:10253000672F782F8827B85F39F0B93FCCF386959D
:1025400077956795B395D9F73EF4909580957095FA
:1025500061957F4F8F4F9F4F0895E89409C097FB77
:102560003EF490958095709561957F4F8F4F9F4F6A
:102570009923A9F0F92F96E9BB279395F6958795AE
:1025800077956795B795F111F8CFFAF4BB0F11F471
:1025900060FF1BC06F5F7F4F8F4F9F4F16C0882318
:1025A00011F096E911C0772321F09EE8872F762F4E
:1025B00005C0662371F096E8862F70E060E02AF08F
:1025C0009A95660F771F881FDAF7880F969587957B
:1025D00097F90895A9D080F09F3740F491110EF03B
:1025E000BBC060E070E080E89FEB089526F41B1606
:1025F000611D711D811D2BC045C0990F0008550F2D
:10260000AA0BE0E8FEEF16161706E807F907C0F078
:1026100012161306E407F50798F0621B730B840B80
:10262000950B39F40A2661F0232B242B252B21F45A
:1026300008950A2609F4A140A6958FEF811D811DFA
:10264000089597F99F6780E870E060E00895882317
:1026500071F4772321F09850872B762F07C06623DB
:1026600011F499270DC09051862B70E060E02AF09C
:102670009A95660F771F881FDAF7880F96958795CA
:1026800097F908959F3F31F0915020F48795779501
:102690006795B795880F911D9695879597F9089539
:1026A0009FEF80EC089500240A941616170618066A
:1026B0000906089500240A94121613061406050646
:1026C0000895092E0394000C11F4882352F0BB0FD7
:1026D00040F4BF2B11F460FF04C06F5F7F4F8F4F3A
:1026E0009F4F089557FD9058440F551F59F05F3F75
:1026F00071F04795880F97FB991F61F09F3F79F024
:1027000087950895121613061406551FF2CF4695A5
:10271000F1DF08C0161617061806991FF1CF869527
:102720007105610508940895E5DFA0F0BEE7B917CB
:1027300088F4BB279F3860F41616B11D672F782FD9
:102740008827985FF7CF869577956795B11D939504
:102750009639C8F30895E894BB2766277727CB01FD
:1027600097F908954ADF08F48FEF08950BD0A9CFA9
:102770009ADF28F09FDF18F0952309F062CF90CF01
:102780001124EACFAFDFA0F3959FD1F3950F50E06E
:10279000551F629FF001729FBB27F00DB11D639F13
:1027A000AA27F00DB11DAA1F649F6627B00DA11DB9
:1027B000661F829F2227B00DA11D621F739FB00D5F
:1027C000A11D621F839FA00D611D221F749F3327CF
:1027D000A00D611D231F849F600D211D822F762F68
:1027E0006A2F11249F5750408AF0E1F088234AF065
:1027F000EE0FFF1FBB1F661F771F881F91505040B1
:10280000A9F79E3F510570F01CCFA6CF5F3FECF3B8
:10281000983EDCF3869577956795B795F795E7959C
:102820009F5FC1F7FE2B880F911D9695879597F9AD
:10283000089511F40EF434CF25CF5CDFD0F3992343
:10284000D9F3CEF39F57550B87FF39D00024A0E66C
:1028500040EA900180585695979528F4805C660F61
:10286000771F881F20F026173707480730F4621BB0
:10287000730B840B202931294A2BA69517940794B2
:10288000202531254A2758F7660F771F881F20F02B
:1028900026173707480730F4620B730B840B200DA3
:1028A000311D411DA09581F7B901842F9158880FE2
:1028B000969587950895A1DE880B990B0895915000
:1028C0005040660F771F881FD2F70895A29FB0016E
:1028D000B39FC001A39F700D811D1124911DB29F54
:1028E000700D811D1124911D0895DB018F939F931D
:1028F00055D0BF91AF91A29F800D911DA39F900DC8
:10290000B29F900D11240895991B79E004C0991F7E
:10291000961708F0961B881F7A95C9F78095089539
:10292000A1E21A2EAA1BBB1BFD010DC0AA1FBB1FD3
:10293000EE1FFF1FA217B307E407F50720F0A21B45
:10294000B30BE40BF50B661F771F881F991F1A94B2
:1029500069F760957095809590959B01AC01BD01DC
:10296000CF010895052E97FB16F400940FD057FD64
:1029700005D0D6DF07FC02D046F408C0509540953C
:10298000309521953F4F4F4F5F4F0895909580951B
:10299000709561957F4F8F4F9F4F089597DFA59F4B
:1029A000900DB49F900DA49F800D911D112408954A
:1029B000EE0FFF1F0590F491E02D0994F894FFCFDE
:1029C0000000240420000100000002000019324A27
:1029D00062788DA2B4C5D4E1ECF4FAFDFF436861DE
:1029E0006E67696E6720696E7075742073746174A8
:1029F0006520746F3A0054696C74696E6720557075
:102A00000054696C74696E6720446F776E00506182
:102A10006E6E696E67204C6566740050616E6E69FB
:102A20006E6720526967687400546F67676C696EDF
:102A30006720466C79776865656C00466972696ED7
:102A400067000000000004029E03A601D501B90141
:102A5000F9016E616E00696E66006F7666002E0089
:102A600001030206040C080900000000C60A9A0AC5
:102A70006F0A770A8A0A990A457374696D617465E9
:102A800064207072652D7363616C653A200046693D
:102A90006E616C207072652D7363616C653A200005
:102AA00000000000640F8B0F440FA00F140F300EB6
:00000001FF
