:100000005EC0000083C0000081C000007FC000000F
:100010007DC000007BC0000079C0000077C00000F8
:1000200075C0000073C0000071C0000064C600000D
:100030006DC000006BC0000069C0000067C0000018
:1000400087C5000063C00000D9C1000018C20000CD
:100050005DC000005BC0000059C0000057C0000038
:100060000C94BB0C53C0000000000007000201000C
:100070000003040600000000000000000102040864
:100080001020408001020408102001020408102002
:10009000040404040404040402020202020203032E
:1000A0000303030300000000250028002B000000CC
:1000B0000000240027002A00AD00FB02EE0A1124F4
:1000C0001FBECFEFD8E0DEBFCDBF11E0A0E0B1E0B2
:1000D000ECE5F3E202C005900D92A03EB107D9F71E
:1000E00013E0A0EEB1E001C01D92A63CB107E1F71C
:1000F00010E0CEEBD0E004C02297FE010E94A811D0
:10010000C83BD107C9F7CDD20C94AC1179CF60E4CC
:1001100076E089EE91E0E2D766E070E08091E5015B
:100120009091E6010E944D0966E070E08091E70140
:100130009091E8010E944D096AE070E082EE91E042
:1001400032D764EB70E082EE91E065D740E855E28B
:1001500060E070E08DE292E0CDC160E689EE91E072
:100160000E94080941E068EC70E089EE91E0FCD75C
:100170009093E8018093E70142E068EC70E089EE3B
:1001800091E0F2D79093E6018093E50182EE91E051
:100190006EC68DE292E096D01816190604F58DE22F
:1001A00092E0BFD09093E1018093E0016DE171E0B6
:1001B0008DE292E0BDD26091E0017091E1014AE0F0
:1001C00050E08DE292E0A8D36091E0017091E101EE
:1001D000627077274AE050E08DE292E09DD38091F3
:1001E000E00180FF0EC066E371E08DE292E0BCD2D8
:1001F00040910A0161E08091E5019091E6010E9441
:1002000067098091E00181FF0EC061E471E08DE239
:1002100092E0AAD240910A0162E08091E5019091BA
:10022000E6010E9467098091E00182FF0EC06EE442
:1002300071E08DE292E098D240910A0161E08091F4
:10024000E7019091E8010E9467098091E00183FF36
:100250000EC06BE571E08DE292E086D240910A011A
:1002600062E08091E7019091E8010E946709809126
:10027000E00184FF05C069E671E08DE292E074D28E
:100280008091E00185FF19C06BE771E08DE292E09B
:100290006BD260E070E082EE91E0BDD668EE73E074
:1002A00080E090E0C9D464EB70E082EE91E0B3D6D8
:1002B00068EE73E080E090E0BFD464EF71E080E02E
:1002C00090E0BAC4FC0184859585FC01E05CFF4F99
:1002D00020813181FC01EE5BFF4F80819181281BE1
:1002E000390B2F733327C9010895FC018485958547
:1002F000FC01E05CFF4F40815181FC01EE5BFF4F50
:10030000208131814217530741F00190F081E02DA7
:10031000E80FF91F208130E002C02FEF3FEFC90145
:100320000895FC0184859585FC01E05CFF4F4081C8
:100330005181FC01EE5BFF4F208131814217530751
:1003400081F0A081B181A80FB91F8C9120813181EA
:100350002F5F3F4F2F73332731832083282F30E0C7
:1003600002C02FEF3FEFC9010895FC0181A188234E
:1003700029F0A489B5898C9186FFFBCF11A208953D
:10038000CF93DF93FC0126853785D901A05CBF4F51
:100390008D919C91119701968F739927E901CE5BFE
:1003A000DF4F4881598184179507D9F30D90BC918F
:1003B000A02DA20FB31F6C93A685B785A05CBF4F7D
:1003C00011969C938E93A689B7892C9181E090E039
:1003D000078C02C0880F991F0A94E2F7282B2C93F0
:1003E00081E081A30488F589E02D80818064808389
:1003F00081E090E0DF91CF91089508951F920F92D0
:100400000FB60F9211242F933F934F938F939F9387
:10041000EF93FF938091C00082FD1CC04091C60005
:100420008091D3029091D40201968F7399272091E5
:10043000D5023091D6028217930771F0E091D30272
:10044000F091D402ED56FD4F40839093D4028093F7
:10045000D30202C08091C600FF91EF919F918F91CE
:100460004F913F912F910F900FBE0F901F901895B5
:100470008DE292E027DF892B09F0BFCF08951F920C
:100480000F920FB60F9211242F933F938F939F9348
:10049000EF93FF9320918F0230919002809191020F
:1004A000909192022817390731F48091C1008F7D15
:1004B0008093C10014C0E0919102F0919202E15B3F
:1004C000FD4F2081809191029091920201968F734D
:1004D000992790939202809391022093C600FF91F6
:1004E000EF919F918F913F912F910F900FBE0F90A1
:1004F0001F901895CF92DF92EF92FF92CF93DF93E8
:10050000EC016A017B01411581EE58076105710517
:10051000F9F0EC89FD8981E090E008A002C0880F25
:10052000991F0A94E2F7808360E079E08DE390E020
:10053000A70196010E945E1121503109410951091C
:100540005695479537952795211580E1380798F0FE
:10055000EC89FD89108260E874E88EE190E0A701E3
:1005600096010E945E1121503109410951095695A9
:10057000479537952795E889F9893083EA89FB897A
:10058000208319A2EE89FF89408181E090E09C01DF
:100590000C8C02C0220F331F0A94E2F7422B4083D7
:1005A000EE89FF8940819C010D8C02C0220F331F10
:1005B0000A94E2F7422B4083EE89FF8940819C0137
:1005C0000E8C02C0220F331F0A94E2F7422B4083A5
:1005D000EE89FF8920810F8C02C0880F991F0A9431
:1005E000E2F7809582238083DF91CF91FF90EF9097
:1005F000DF90CF9008951092300210922F0288EE73
:1006000093E0A0E0B0E08093310290933202A09397
:100610003302B093340286E891E090932E028093E7
:100620002D0283E992E090933A02809339028FE49D
:1006300092E090933C0280933B0285EC90E0909393
:100640003E0280933D0284EC90E0909340028093C0
:100650003F0280EC90E0909342028093410281EC53
:1006600090E0909344028093430282EC90E0909358
:1006700046028093450286EC90E090934802809376
:10068000470284E08093490283E080934A0287E036
:1006900080934B0285E080934C0281E080934D0271
:1006A0000895EED234DDC8E3D2E073DD2097E9F39C
:1006B000DFDEFBCFCF92DF92EF92FF920F931F937B
:1006C000CF93DF936C01EB017A01E60EF71E00E099
:1006D00010E00BC06991D601ED91FC910190F08181
:1006E000E02DC6010995080F191FCE15DF0591F7FA
:1006F000C801DF91CF911F910F91FF90EF90DF9094
:10070000CF9008956115710581F0DB010D900020F7
:10071000E9F7AD0141505109461B570BDC01ED9142
:10072000FC910280F381E02D099480E090E008952F
:10073000E9CFDC01ED91FC910190F081E02D09946D
:100740000F931F93CF93DF93EC016DE0F2DF8C01E9
:100750006AE0CE01EEDF9C01200F311FC901DF915D
:10076000CF911F910F9108950F931F93CF93DF9314
:10077000EC01C8DF8C01CE01E3DF9801280F391F9F
:10078000C901DF91CF911F910F9108954F925F9210
:100790006F927F929F92AF92BF92CF92DF92EF9231
:1007A000FF920F931F93CF93DF93CDB7DEB7A1973F
:1007B0000FB6F894DEBF0FBECDBF5C016A017B01AE
:1007C000922E19A281E0821710F08AE0982E8E01F5
:1007D0000F5D1F4F492C512C612C712CC701B601A4
:1007E000A30192010E945E118C2D929E801911240A
:1007F000015011098A3014F4805D01C0895CF80150
:10080000808369017A01C114D104E104F10431F754
:10081000B801C50177DFA1960FB6F894DEBF0FBE11
:10082000CDBFDF91CF911F910F91FF90EF90DF909F
:10083000CF90BF90AF909F907F906F905F904F90C0
:1008400008952115310541F4DC01ED91FC910190F1
:10085000F081E02D642F099499CF0F931F93CF93CC
:10086000DF93EC019A01462F50E060E070E0E9DF91
:100870008C01CE0165DF9801280F391FC901DF9176
:10088000CF911F910F910895CF92DF92EF92FF9237
:100890000F931F93CF93DF93EC016A017B01211526
:1008A000310579F4E881F9810190F081E02D642F20
:1008B000DF91CF911F910F91FF90EF90DF90CF903C
:1008C00009942A30310519F477FD0DC02AE0B701EB
:1008D000A601CE01DF91CF911F910F91FF90EF9074
:1008E000DF90CF9053CF6DE224DF8C014427552752
:1008F000BA014C195D096E097F092AE0CE0146DF75
:10090000080F191FC801DF91CF911F910F91FF9020
:10091000EF90DF90CF9008950F931F93CF93DF93C5
:10092000EC019A01AB01662757FD6095762FACDF8D
:100930008C01CE0105DF9801280F391FC901DF9115
:10094000CF911F910F9108957F928F929F92AF92B6
:10095000BF92CF92DF92EF92FF920F931F93CF93AC
:10096000DF93EC016A017B01122F9A01AB01C701F1
:10097000B6010E943011882319F062E971E032C09B
:1009800046015701E894B7F82FEF3FEF4FE75FE7D5
:10099000C501B4010E94301181110DC02FEF3FEF4E
:1009A0004FE75FE7C501B4010E94270F18161CF43A
:1009B00066E971E017C02FEF3FEF4FE75FE4C70133
:1009C000B6010E94C91018160CF40AC02FEF3FEFB1
:1009D0004FE75FECC701B6010E94270F87FF11C0E8
:1009E0006AE971E0CE01DF91CF911F910F91FF90E5
:1009F000EF90DF90CF90BF90AF909F908F907F90BF
:100A000081CE20E030E0A901C701B6010E94270F86
:100A100087FF09C06DE2CE018CDE5C01F7FAF0942D
:100A2000F7F8F09402C0A12CB12C00E060E070E077
:100A300080E09FE307C020E030E040E251E40E9404
:100A40002B0F0F5F0113F7CF262F372F482F592F6A
:100A5000C701B6010E94C30E762E872E982EC92E8E
:100A60000E94980FD62EE72EF82E092F0E94C40F51
:100A70009B01AC01672D782D892D9C2D0E94C20E03
:100A8000C62E972E882E792E2AE04D2D5E2D6F2DA5
:100A9000702FCE017BDE7C01EA0CFB1C1123A9F137
:100AA0006EE971E0CE012EDEE80EF91E2EC020E0C8
:100AB00030E040E251E46C2D792D882D972D0E9475
:100AC000CD10762E072F6C019D2D0E94930F4B01A8
:100AD000AA2497FCA094BA2C2AE030E0B501A40126
:100AE000CE01D2DEE80EF91EC501B4010E94C60F88
:100AF0009B01AC01672D702F8C2D9D2D0E94C20E85
:100B0000C62E972E882E792E11501111D0CFC701E5
:100B1000DF91CF911F910F91FF90EF90DF90CF90D9
:100B2000BF90AF909F908F907F9008950F931F93E9
:100B3000CF93DF93EC0108DF8C01CE0101DE980139
:100B4000280F391FC901DF91CF911F910F9108958F
:100B50001F920F920FB60F9211242F933F938F93F2
:100B60009F93AF93BF938091D7029091D802A091A9
:100B7000D902B091DA023091DF02232F2D5F2D3799
:100B800020F40196A11DB11D05C0232F2A570296FE
:100B9000A11DB11D2093DF028093D7029093D8024C
:100BA000A093D902B093DA028091DB029091DC022B
:100BB000A091DD02B091DE020196A11DB11D8093CE
:100BC000DB029093DC02A093DD02B093DE02BF91C2
:100BD000AF919F918F913F912F910F900FBE0F90EA
:100BE0001F9018950F931F939FB7F8940091DB0205
:100BF0001091DC022091DD023091DE0286B5A89BC7
:100C000006C08F3F21F00F5F1F4F2F4F3F4F9FBFF9
:100C1000322F212F102F0027080F111D211D311DEC
:100C200042E0000F111F221F331F4A95D1F7B80170
:100C3000C9011F910F910895CF92DF92EF92FF9219
:100C4000CF93DF936B017C01CDDFEB010DC0CADFD9
:100C50006C1B7D0B683E734038F081E0C81AD108E8
:100C6000E108F108C851DC4FC114D104E104F104DA
:100C700071F7DF91CF91FF90EF90DF90CF900895C3
:100C8000789484B5826084BD84B5816084BD85B567
:100C9000826085BD85B5816085BDEEE6F0E080812E
:100CA00081608083E1E8F0E010828081826080834F
:100CB000808181608083E0E8F0E0808181608083D2
:100CC000E1EBF0E0808184608083E0EBF0E0808104
:100CD00081608083EAE7F0E08081846080838081A6
:100CE000826080838081816080838081806880834E
:100CF0001092C10008951F920F920FB60F92112407
:100D00002F933F934F935F936F937F938F939F9313
:100D1000AF93BF93EF93FF938091E10287FF05C0EC
:100D200010928500109284001AC02091E1023327AE
:100D300027FD30958091E00290E0281739077CF478
:100D40008091E102992787FD9095FC01EE0FFF1F2E
:100D5000E80FF91FEE51FD4F808186FD36C080916E
:100D6000E1028F5F8093E1022091E102332727FDAA
:100D700030958091E00290E028173907BCF580910A
:100D8000E1028C30E4F132C08091E102992787FDC5
:100D90009095FC01EE0FFF1FE80FF91FEE51FD4F7C
:100DA000808161E08F73B8D751C080E49CE905C0B1
:100DB000809184009091850004969093890080939F
:100DC00088008FEF8093E10241C08091E102992772
:100DD00087FD9095FC01EE0FFF1FE80FF91FEE5104
:100DE000FD4F808160E08F7397D7B9CF80918400E9
:100DF00090918500049680349C49B8F2D9CF8091B7
:100E00008400909185002091E102332727FD3095E1
:100E1000F901EE0FFF1FE20FF31FEE51FD4F21818D
:100E20003281820F931F9093890080938800809174
:100E3000E102992787FD9095FC01EE0FFF1FE80F57
:100E4000F91FEE51FD4F808186FD9ECFFF91EF91FE
:100E5000BF91AF919F918F917F916F915F914F91D2
:100E60003F912F910F900FBE0F901F9018952091DA
:100E7000E0022C30A0F4FC012083822F8F5F80934E
:100E8000E002822F90E0FC01EE0FFF1FE80FF91F38
:100E9000EE51FD4F88EB9BE09283818308952FEF05
:100EA000FC0120830895DF92EF92FF920F931F932E
:100EB000CF93DF93EC01D62E7A01890188818C30A3
:100EC00008F064C061E08D2DEFD68881A82FB0E0D6
:100ED000FD01EE0FFF1FEA0FFB1FEE51FD4F2D2D01
:100EE0002F739081907C922B908360E272E06E1958
:100EF0007F0977FF02C06D5F7F4F75956795759588
:100F00006795698340E659E0401B510B57FF02C0CB
:100F10004D5F5F4F55954795559547954A836CE0D2
:100F20000E9452119CE0899FB001112420E030E022
:100F3000A901460F571FFA01EE0FFF1FE40FF51F1F
:100F4000EE51FD4F908196FD15C02F5F3F4F2C3025
:100F5000310571F71DC01092800082E080938100FE
:100F60001092850010928400B19A80916F00826087
:100F700080936F00888190E0FC01EE0FFF1FE80F67
:100F8000F91FEE51FD4F808180648083888103C00A
:100F9000882309F3EFCFDF91CF911F910F91FF903D
:100FA000EF90DF90089520E639E040E252E07BCFF9
:100FB000FC0180818C3070F5918128E830E0291B9C
:100FC000310997FD3395220F331F220F331F62170C
:100FD00073077CF0928128E532E0291B310997FDE7
:100FE0003395220F331F220F331F621773070CF440
:100FF0009B014FB7F89490E0FC01EE0FFF1FE80F44
:10100000F91FEE51FD4F22503109220F331F328359
:1010100021834FBF0895AF92BF92CF92DF92EF929C
:10102000FF920F931F93CF93DF93EC01603282E026
:1010300078070CF040C077FD04C0653B710524F4CF
:1010400005C060E070E002C064EB70E0298188E8D0
:1010500090E0821B910927FD9395880F991F880FB7
:10106000991F5C01CC24B7FCC094DC2C882777FD49
:101070008095982F2A8148E552E0421B510927FDAF
:101080005395440F551F440F551F8A01222717FD02
:101090002095322F3F932F931F930F9314EBE12E44
:1010A000F12C00E010E020E030E0A9018ED50F9097
:1010B0000F900F900F90CE01DF91CF911F910F9164
:1010C000FF90EF90DF90CF90BF90AF9071CF20E076
:1010D00030E040E050E08D5B9F4F8DC2EF92FF9279
:1010E0000F931F93CF93DF938C017B0186E093E0F6
:1010F00040D2E801CD5BDF4FCE01DFD2F801F282B2
:10110000E182B70180E090E03FD7AB01BC01CE01A6
:10111000FAD210E020E030E040E050E0612FCE0154
:101120006AD21F5F1031B1F7DF91CF911F910F91FC
:10113000FF90EF9008959A018D5B9F4F211540E13C
:10114000340728F020E030E040E050E102C040E009
:1011500050E051C2411101C0BACF20E030E040E080
:1011600050E18D5B9F4F47C2FF920F931F93CF9328
:10117000DF939C014330E0F54150A42FB0E0FC0127
:1011800084E1489FE00DF11D112486A5811126C040
:1011900046A772A761A735A724A7442351F0413081
:1011A00079F456E0C5E0D3E014E007E082E0F82EE1
:1011B00007C05CE0CBE0D9E01AE00DE098E0F92E42
:1011C00084E18A9FF0018B9FF00D1124E20FF31F41
:1011D000F3A206A314A3D5A3C7A350A744E14A9F33
:1011E000C0014B9F900D11244B96820F931F02C09C
:1011F00080E090E0DF91CF911F910F91FF900895D3
:10120000FC011482138215821282118210820895C9
:10121000BF92CF92DF92EF92FF920F931F93CF93E3
:10122000DF931F92CDB7DEB78C01B62E7C0183E031
:10123000E80EF11C6801EBE1CE0ED11CC701E0DF26
:10124000F6E0EF0EF11CEC14FD04C1F7F80113A653
:1012500016A612A611A617AEEE5BFF4F1082F8017C
:1012600016AE15AE7801F3E4EF0EF11C60E4C70191
:10127000BFD1F801B0826B2DCE010196B9D1898121
:10128000F70180830F90DF91CF911F910F91FF9015
:10129000EF90DF90CF90BF900895CF93DF93EC0154
:1012A0009B01AE85BF85E0D79B01AC0160E077E88C
:1012B00083E993E00E945E11288339834A835B832C
:1012C0001C821D821E821F82DF91CF9108950F9391
:1012D0001F93CF93DF93EC01142F8889413019F4C9
:1012E00083FF05C00DC0423049F483FF09C061305F
:1012F00011F4805F01C08051888B41C0433031F4CC
:10130000613011F4885FF8CF8850F6CF4430B9F5DA
:10131000613011F48F5F01C08150888B28892F7351
:10132000288B822F90E0203148F4ECE1F1E0E81BBB
:10133000F90B2081FC01E45FFE4F1FC030EF320F3C
:10134000303138F4FC01E450FF4F2081ECE2F1E051
:1013500012C02052203148F4ECE3F1E0E81BF90B15
:101360002081FC01E451FF4F08C0FC01E452FF4F13
:101370002081ECE4F1E0E81BF90B008102C02FEFC3
:101380000FEF88898F73888B80E1289FA00111243B
:10139000688589899A89CFDE80E1089FA0011124A0
:1013A0006B8589899A89C7DEE8891430A1F4E03118
:1013B00010F010E001C013E080EF8E0F803108F4D0
:1013C000166080EE8E0F803108F41C60E053E0312F
:1013D00068F419600BC0E695E695E695E83028F4C8
:1013E000F0E0E056FE4F108101C010E089899A8933
:1013F00010FF04C041E06A85ADDE02C06A8567DE89
:1014000089899A8911FF04C041E06C85A3DE02C07E
:101410006C855DDE89899A8912FF04C041E0698587
:1014200099DE02C0698553DE89899A8913FF04C059
:1014300041E06D858FDE02C06D8549DE8889DF91D0
:10144000CF911F910F9108958091360390E02091E4
:101450003703821B91090895209137038091360349
:10146000281750F4E22FF0E0E85CFC4F808190E018
:101470002F5F2093370308958FEF9FEF0895E0913A
:10148000370380913603E81730F4F0E0E85CFC4F56
:10149000808190E008958FEF9FEF08950895CF9297
:1014A000DF92EF92FF920F931F93CF93DF937C0114
:1014B000CB018A0120911203222389F0EB016B01F9
:1014C000C40ED51ECC15DD0561F06991D701ED91F3
:1014D000FC910190F081E02DC7010995F3CF642FB5
:1014E00021D2C801DF91CF911F910F91FF90EF9012
:1014F000DF90CF900895CF93DF931F92CDB7DEB7E3
:101500006983209112032223D1F02091130320320A
:1015100040F021E030E0FC013383228380E090E062
:1015200014C080911403E82FF0E0EB5EFC4F99812A
:1015300090838F5F809314038093130304C061E052
:10154000CE010196EFD181E090E00F90DF91CF9135
:101550000895FC011382128248EE53E060E070E0CF
:1015600044835583668377838CEA91E091838083FB
:1015700008951092370310923603109214031092BC
:1015800013031DC1862F413208F040E268E373E087
:1015900032D11092370380933603089521E0F2CFC1
:1015A00081E080931203609335031092140310922C
:1015B000130308950F93062F21E04091130365E173
:1015C00073E0809135035BD11092140310921303E2
:1015D000109212030F91089561E0ECCF86E093E042
:1015E000B8CFDC01ED91FC910190F081E02D0994E0
:1015F000FC0160830895FF920F931F93CF93DF93B5
:1016000000D0CDB7DEB7162FF52E032FFC01608179
:1016100086E093E02A834983C3DFE0910603F091DB
:10162000070384E0189FB00111246A5F7F4F019087
:10163000F081E02D86E093E009954981642F7F2DAC
:1016400086E093E0CEDF6F2D70E086E093E0C9DFA7
:101650002A81622F702F86E093E0C3DF602F70E055
:1016600086E093E0BEDF86E093E00F900F90DF917D
:10167000CF911F910F91FF90AFCF1F93CF93DF9327
:101680001F92CDB7DEB7162FFC01608186E093E094
:10169000498386DF612F86E093E02DDF4981642F47
:1016A00086E093E028DF86E093E00F90DF91CF9112
:1016B0001F9192CF40E060E0E0CFCF93DF93EC0149
:1016C00086E093E056DFCE01DF91CF91F3CF1F93F9
:1016D000CF93DF93EC01162F688186E093E060DF03
:1016E000612F86E093E007DF86E093E075DF41E05D
:1016F000688186E093E052DF86E093E0ADDEDF9123
:10170000CF911F910895CF92DF92EF92FF921F9396
:10171000CF93DF93EC019A01AB0160E27CEB8EEB9F
:1017200095E499D320E030E040E85FE32BD36B01F0
:101730007C0168EB71E08DE292E00E94980322E068
:1017400030E0B701A6018DE292E0F0D920E030E070
:1017500040E05FE3C701B60116D353D4E9D3F62EB8
:101760006EEC71E08DE292E00E9498034AE050E056
:101770006F2D8DE292E071D860E0CE01A8DF182FC6
:10178000482F4F76406160E0CE0177DF4F2D6EEF3E
:10179000CE0173DF412F60E0CE016FDF65E070E0C6
:1017A00080E090E049DA412F416A60E0CE01DF91AC
:1017B000CF911F91FF90EF90DF90CF905ECF10926E
:1017C000C50381E08093C3031092C20361E082E10C
:1017D000A3D261E083E1A0D2E9EBF0E080818E7FCB
:1017E000808380818D7F808388E48093B80085E446
:1017F0008093BC000895413208F03FC09091C5032A
:101800009111FCCF91E09093C5032093C3032FEF78
:101810002093580310929D03240F20939C039093D0
:10182000C4039091C403880F892B8093C4038091D3
:10183000C203813041F41092C2038091C4038093AB
:10184000BB0085EC01C085EE8093BC008091C50390
:101850008130E1F380919D03841710F440919D0342
:101860002EE933E0FB01D9018A2F821B841718F47B
:101870008D918193F9CF842F089580E008950F937F
:10188000413208F046C09091C5039111FCCF92E01F
:101890009093C5030093C3039FEF90935803109256
:1018A0009D0340939C03FB016EE973E0DB019A2FDB
:1018B000961B941718F491919D93F9CF1092C4033D
:1018C0009091C403880F892B8093C4038091C20335
:1018D000813041F41092C2038091C4038093BB0015
:1018E00085EC01C085EE8093BC00222321F080911D
:1018F000C5038230E1F3809158038F3F61F08091FE
:101900005803803251F080915803803341F483E0D2
:1019100007C081E005C080E003C082E001C084E030
:101920000F910895613298F42091C503243089F411
:1019300060937A03FC018CE793E0DC012A2F281BDB
:10194000261718F421912D93F9CF80E0089581E0B6
:10195000089582E0089585ED8093BC008091BC00DD
:1019600084FDFCCF1092C503089585EC8093BC00E4
:101970001092C50308951F920F920FB60F92112473
:101980002F933F934F935F936F937F938F939F9387
:10199000AF93BF93EF93FF938091B900887F803618
:1019A00009F49CC068F5883209F45BC090F480317A
:1019B00009F454C038F4882309F4F3C0883009F4DA
:1019C0004DC0F2C0883109F44CC0803209F45DC0CA
:1019D000EBC0803409F468C048F4803309F455C082
:1019E000883309F0E1C080935803A7C0803509F41B
:1019F0004FC0883509F45DC0883409F0D5C0D3C024
:101A0000883909F4C4C0A8F4883709F467C038F4E9
:101A1000883609F463C0803709F460C0C5C08838CF
:101A200009F4B5C0803909F45FC0803809F0BCC042
:101A30005BC0803B09F483C038F4803A09F466C087
:101A4000883A09F47CC0B0C0803C09F4A4C0883C4A
:101A500009F4A1C0883B09F487C0A6C08091C403E3
:101A600010C090919D0380919C03981770F5E091B0
:101A70009D0381E08E0F80939D03F0E0E256FC4FC2
:101A800080818093BB0085EC83C0809358038BC01A
:101A9000E0919D0381E08E0F80939D038091BB00B8
:101AA000F0E0E256FC4F808390919D0380919C036F
:101AB0006BC0E0919D0381E08E0F80939D03809128
:101AC000BB00F0E0E256FC4F80838091C30381119C
:101AD0006AC081E08093C20384EA5EC083E08093A1
:101AE000C50310925903CFCF80915903803208F07B
:101AF0004EC0E091590381E08E0F8093590380918D
:101B0000BB00F0E0E65AFC4F8083BDCF80915903C3
:101B1000803230F4E0915903F0E0E65AFC4F108235
:101B20001ADF6091590370E0E091BE03F091BF03AA
:101B30008AE593E009951092590317DF35C084E0D8
:101B40008093C50310927B0310927A03E091C00347
:101B5000F091C103099580917A03811105C081E05C
:101B600080937A0310927C03E0917B0381E08E0FD7
:101B700080937B03F0E0E458FC4F80818093BB00AE
:101B800090917B0380917A03981708F47CCF85E8C5
:101B90008093BC0009C085EC8093BC001092C50303
:101BA00003C010925803D7DEFF91EF91BF91AF9120
:101BB0009F918F917F916F915F914F913F912F9165
:101BC0000F900FBE0F901F9018954F925F926F92DB
:101BD0007F92AF92BF92CF92DF92EF92FF920F93DC
:101BE0001F93CF93DF93CDB7DEB729013A01621B74
:101BF000730B840B950B29893A894B895C892A19C7
:101C00003B094C095D09298B3A8B4B8B5C8B9B0103
:101C1000AC0169897A898B899C8935D3E418F508E8
:101C200006091709A80197016BD32A0D3B1D4C1D0E
:101C30005D1DB901CA01DF91CF911F910F91FF90F6
:101C4000EF90DF90CF90BF90AF907F906F905F90BC
:101C50004F900895833069F028F48130A1F08230EC
:101C600011F514C08630B1F08730C1F08430D9F45A
:101C700004C0809180008F7703C0809180008F7DA9
:101C800080938000089584B58F7702C084B58F7DDE
:101C900084BD08958091B0008F7703C08091B0001B
:101CA0008F7D8093B0000895CF93DF9390E0FC0187
:101CB000E458FF4F4491FC01E057FF4F8491882383
:101CC00041F190E0880F991FFC01E255FF4F2591EB
:101CD0003491D9018C559F4FFC0185919491C82F67
:101CE000D92F9FB7F8948C91611106C04095842339
:101CF0008C938881842308C0623041F4242F20957E
:101D000082238C938881842B888302C0842B8C93BC
:101D10009FBFDF91CF9108950F931F93CF93DF93D0
:101D20001F92CDB7DEB7282F30E0F901E859FF4FF9
:101D30008491F901E458FF4F1491F901E057FF4FE6
:101D400004910023C9F0882319F0698383DF698136
:101D5000E02FF0E0EE0FFF1FEC55FF4F85919491BF
:101D6000DC019FB7F8948C91611103C01095812319
:101D700001C0812B8C939FBF0F90DF91CF911F915A
:101D80000F9108955058BB27AA270ED0B1C1A2D1F8
:101D900030F0A7D120F031F49F3F11F41EF497C129
:101DA0000EF4E095E7FB64C1E92FB3D180F3BA17D5
:101DB000620773078407950718F071F49EF5E2C176
:101DC0000EF4E0950B2EBA2FA02D0B01B901900156
:101DD0000C01CA01A0011124FF27591B99F0593F9A
:101DE00050F4503E68F11A16F040A22F232F342FE2
:101DF0004427585FF3CF469537952795A795F04030
:101E00005395C9F77EF41F16BA0B620B730B840B44
:101E1000BAF09150A1F0FF0FBB1F661F771F881FFC
:101E2000C2F70EC0BA0F621F731F841F48F4879554
:101E300077956795B795F7959E3F08F0B3CF939543
:101E4000880F08F09927EE0F979587950895ECD0A5
:101E500008F481E008950CD04BC143D140F03AD151
:101E600030F021F45F3F19F003C151118CC12FC133
:101E700050D198F39923C9F35523B1F3951B550B12
:101E8000BB27AA2762177307840738F09F5F5F4F4D
:101E9000220F331F441FAA1FA9F333D00E2E3AF08E
:101EA000E0E830D091505040E695001CCAF729D0A8
:101EB000FE2F27D0660F771F881FBB1F26173707F7
:101EC0004807AB07B0E809F0BB0B802DBF01FF2727
:101ED00093585F4F2AF09E3F510568F0C9C053C127
:101EE0005F3FECF3983EDCF3869577956795B79561
:101EF000F7959F5FC9F7880F911D9695879597F97C
:101F00000895E1E0660F771F881FBB1F62177307F4
:101F10008407BA0720F0621B730B840BBA0BEE1F09
:101F200088F7E095089504D06894B1112CC1089504
:101F3000F8D088F09F5790F0B92F9927B751A0F0AB
:101F4000D1F0660F771F881F991F1AF0BA95C9F74D
:101F500012C0B13081F016D1B1E0089513C1672FDE
:101F6000782F8827B85F39F0B93FCCF386957795FD
:101F70006795B395D9F73EF49095809570956195E6
:101F80007F4F8F4F9F4F0895E89409C097FB3EF411
:101F900090958095709561957F4F8F4F9F4F9923B6
:101FA000A9F0F92F96E9BB279395F6958795779534
:101FB0006795B795F111F8CFFAF4BB0F11F460FFF4
:101FC0001BC06F5F7F4F8F4F9F4F16C0882311F04C
:101FD00096E911C0772321F09EE8872F762F05C060
:101FE000662371F096E8862F70E060E02AF09A95FB
:101FF000660F771F881FDAF7880F9695879597F9F0
:102000000895A9D080F09F3740F491110EF0BBC025
:1020100060E070E080E89FEB089526F41B16611DD8
:10202000711D811D2BC045C0990F0008550FAA0BCB
:10203000E0E8FEEF16161706E807F907C0F01216DB
:102040001306E407F50798F0621B730B840B950BDE
:1020500039F40A2661F0232B242B252B21F4089533
:102060000A2609F4A140A6958FEF811D811D0895D0
:1020700097F99F6780E870E060E00895882371F425
:10208000772321F09850872B762F07C0662311F411
:1020900099270DC09051862B70E060E02AF09A9548
:1020A000660F771F881FDAF7880F9695879597F93F
:1020B00008959F3F31F0915020F48795779567956B
:1020C000B795880F911D9695879597F908959FEF7D
:1020D00080EC089500240A941616170618060906BF
:1020E000089500240A94121613061406050608958E
:1020F000092E0394000C11F4882352F0BB0F40F416
:10210000BF2B11F460FF04C06F5F7F4F8F4F9F4F55
:10211000089557FD9058440F551F59F05F3F71F0D7
:102120004795880F97FB991F61F09F3F79F087953E
:102130000895121613061406551FF2CF4695F1DFC7
:1021400008C0161617061806991FF1CF8695710557
:10215000610508940895E5DFA0F0BEE7B91788F49B
:10216000BB279F3860F41616B11D672F782F88277C
:10217000985FF7CF869577956795B11D93959639BA
:10218000C8F30895E894BB2766277727CB0197F912
:1021900008954ADF08F48FEF08950BD0A9CF9ADF96
:1021A00028F09FDF18F0952309F062CF90CF11241B
:1021B000EACFAFDFA0F3959FD1F3950F50E0551F05
:1021C000629FF001729FBB27F00DB11D639FAA278C
:1021D000F00DB11DAA1F649F6627B00DA11D661FDB
:1021E000829F2227B00DA11D621F739FB00DA11DFC
:1021F000621F839FA00D611D221F749F3327A00DB6
:10220000611D231F849F600D211D822F762F6A2F51
:1022100011249F5750408AF0E1F088234AF0EE0FD6
:10222000FF1FBB1F661F771F881F91505040A9F7E3
:102230009E3F510570F01CCFA6CF5F3FECF3983E58
:10224000DCF3869577956795B795F795E7959F5F4A
:10225000C1F7FE2B880F911D9695879597F90895E4
:10226000E3DE880B990B0895A29FB001B39FC001D4
:10227000A39F700D811D1124911DB29F700D811DB2
:102280001124911D0895DB018F939F9355D0BF9129
:10229000AF91A29F800D911DA39F900DB29F900DB5
:1022A00011240895991B79E004C0991F961708F02E
:1022B000961B881F7A95C9F780950895A1E21A2E7A
:1022C000AA1BBB1BFD010DC0AA1FBB1FEE1FFF1FDA
:1022D000A217B307E407F50720F0A21BB30BE40B2A
:1022E000F50B661F771F881F991F1A9469F7609571
:1022F0007095809590959B01AC01BD01CF0108952B
:10230000052E97FB16F400940FD057FD05D0D6DFAD
:1023100007FC02D046F408C05095409530952195B1
:102320003F4F4F4F5F4F0895909580957095619501
:102330007F4F8F4F9F4F089597DFA59F900DB49FBC
:10234000900DA49F800D911D11240895EE0FFF1F85
:0C2350000590F491E02D0994F894FFCF63
:10235C000000C60320000100000003000019324AEF
:10236C0062788DA2B4C5D4E1ECF4FAFDFF43686148
:10237C006E67696E6720696E707574207374617412
:10238C006520746F3A0054696C74696E67205570DF
:10239C000054696C74696E6720446F776E005061ED
:1023AC006E6E696E67204C6566740050616E6E6966
:1023BC006E6720526967687400546F67676C696E4A
:1023CC006720466C79776865656C00466972696E42
:1023DC00670000000000C0015A0362019101750101
:1023EC00B5016E616E00696E66006F7666002E0038
:1023FC0001030206040C0809000000007B0A4F0AC6
:10240C00240A2C0A3F0A4E0A457374696D6174657F
:10241C0064207072652D7363616C653A20004669A7
:10242C006E616C207072652D7363616C653A20006F
:00000001FF
