:1000000034C0000057C0000055C0000053C00000BD
:1000100051C000004FC000004DC000004BC00000A8
:1000200049C0000047C0000045C0000043C00000B8
:1000300041C000003FC000003DC000003BC00000C8
:10004000BEC3000037C000003AC1000079C1000003
:1000500031C000002FC000002DC000002BC00000E8
:1000600029C0000027C000005A0211241FBECFEF94
:10007000D8E0DEBFCDBF11E0A0E0B1E0E8EBF9E0F1
:1000800002C005900D92AC37B107D9F712E0ACE78A
:10009000B1E001C01D92A133B107E1F710E0CAE65B
:1000A000D0E003C02297FE0181D4C836D107D1F732
:1000B00057D280C4A5CF40E855E260E070E08EE7FB
:1000C00091E079C18EE791E05ED01816190604F52B
:1000D0008EE791E087D090937D0180937C0166E06C
:1000E00071E08EE791E083D260917C0170917D0197
:1000F0004AE050E08EE791E04AD360917C01709134
:100100007D01627077274AE050E08EE791E03FD3AF
:1001100080917C0180FF05C06FE171E08EE791E086
:1001200082D280917C0181FF05C06AE271E08EE796
:1001300091E079D280917C0182FF05C067E371E094
:100140008EE791E070D280917C0183FF05C064E46A
:1001500071E08EE791E067D280917C0184FF05C059
:1001600062E571E08EE791E05ED280917C0185FFCF
:1001700005C064E671E08EE791E055D264EF71E06E
:1001800080E090E090C3FC0184859585FC01E05CF3
:10019000FF4F20813181FC01EE5BFF4F8081918117
:1001A000281B390B2F733327C9010895FC0184855F
:1001B0009585FC01E05CFF4F40815181FC01EE5BC5
:1001C000FF4F208131814217530741F00190F081A8
:1001D000E02DE80FF91F208130E002C02FEF3FEF44
:1001E000C9010895FC0184859585FC01E05CFF4F01
:1001F00040815181FC01EE5BFF4F2081318142172C
:10020000530781F0A081B181A80FB91F8C91208183
:1002100031812F5F3F4F2F73332731832083282F66
:1002200030E002C02FEF3FEFC9010895FC0181A12A
:10023000882329F0A489B5898C9186FFFBCF11A270
:100240000895CF93DF93FC0126853785D901A05C03
:10025000BF4F8D919C91119701968F739927E9015A
:10026000CE5BDF4F4881598184179507D9F30D90F4
:10027000BC91A02DA20FB31F6C93A685B785A05C7F
:10028000BF4F11969C938E93A689B7892C9181E0DC
:1002900090E0078C02C0880F991F0A94E2F7282B80
:1002A0002C9381E081A30488F589E02D808180640E
:1002B000808381E090E0DF91CF91089508951F92AF
:1002C0000F920FB60F9211242F933F934F938F935A
:1002D0009F93EF93FF938091C00082FD1CC04091DB
:1002E000C600809124029091250201968F73992770
:1002F00020912602309127028217930771F0E09136
:100300002402F0912502EC51FE4F40839093250288
:100310008093240202C08091C600FF91EF919F91CB
:100320008F914F913F912F910F900FBE0F901F9083
:1003300018958EE791E027DF892B09F0BFCF08954C
:100340001F920F920FB60F9211242F933F938F930A
:100350009F93EF93FF932091E0013091E101809111
:10036000E2019091E3012817390731F48091C1002F
:100370008F7D8093C10014C0E091E201F091E30110
:10038000E056FE4F20818091E2019091E3010196B9
:100390008F7399279093E3018093E2012093C60025
:1003A000FF91EF919F918F913F912F910F900FBEF1
:1003B0000F901F901895CF92DF92EF92FF92CF93FC
:1003C000DF93EC016A017B01411581EE580761055D
:1003D0007105F1F0EC89FD8981E090E008A002C090
:1003E000880F991F0A94E2F7808360E079E08DE33B
:1003F00090E0A7019601B6D2215031094109510977
:100400005695479537952795211580E1380790F047
:10041000EC89FD89108260E874E88EE190E0A70124
:100420009601A0D2215031094109510956954795AD
:1004300037952795E889F9893083EA89FB892083F4
:1004400019A2EE89FF89408181E090E09C010C8C2B
:1004500002C0220F331F0A94E2F7422B4083EE8939
:10046000FF8940819C010D8C02C0220F331F0A942A
:10047000E2F7422B4083EE89FF8940819C010E8C7C
:1004800002C0220F331F0A94E2F7422B4083EE8909
:10049000FF8920810F8C02C0880F991F0A94E2F710
:1004A000809582238083DF91CF91FF90EF90DF9042
:1004B000CF900895109281011092800188EE93E010
:1004C000A0E0B0E08093820190938301A093840127
:1004D000B09385018FE691E090937F0180937E0138
:1004E00084EE91E090938B0180938A0180EA91E001
:1004F00090938D0180938C0185EC90E090938F0117
:1005000080938E0184EC90E0909391018093900110
:1005100080EC90E0909393018093920181EC90E0C5
:10052000909395018093940182EC90E090939701D1
:100530008093960186EC90E09093990180939801C6
:1005400084E080939A0183E080939B0187E080930D
:100550009C0185E080939D0181E080939E01089538
:10056000C6D1A9DDC9E9D1E0ADDD2097E9F3E1DE2F
:10057000FBCFCF92DF92EF92FF920F931F93CF9317
:10058000DF936C01EB017A01E60EF71E00E010E04C
:100590000BC06991D601ED91FC910190F081E02DA5
:1005A000C6010995080F191FCE15DF0591F7C8017F
:1005B000DF91CF911F910F91FF90EF90DF90CF903F
:1005C00008956115710581F0DB010D900020E9F7B8
:1005D000AD0141505109461B570BDC01ED91FC91D7
:1005E0000280F381E02D099480E090E00895E9CF46
:1005F000DC01ED91FC910190F081E02D09940F93C5
:100600001F93CF93DF93EC016DE0F2DF8C016AE082
:10061000CE01EEDF9C01200F311FC901DF91CF9188
:100620001F910F9108950F931F93CF93DF93EC01C8
:10063000C8DF8C01CE01E3DF9801280F391FC90103
:10064000DF91CF911F910F9108954F925F926F921A
:100650007F929F92AF92BF92CF92DF92EF92FF92E2
:100660000F931F93CF93DF93CDB7DEB7A1970FB64C
:10067000F894DEBF0FBECDBF5C016A017B01922EF4
:1006800019A281E0821710F08AE0982E8E010F5D8A
:100690001F4F492C512C612C712CC701B601A301AD
:1006A000920160D18C2D929E801911240150110964
:1006B0008A3014F4805D01C0895CF801808369018F
:1006C0007A01C114D104E104F10439F7B801C5017C
:1006D00078DFA1960FB6F894DEBF0FBECDBFDF91D5
:1006E000CF911F910F91FF90EF90DF90CF90BF902F
:1006F000AF909F907F906F905F904F900895CF92B2
:10070000DF92EF92FF920F931F93CF93DF93EC0151
:100710006A017B012115310579F4E881F9810190A5
:10072000F081E02D642FDF91CF911F910F91FF9009
:10073000EF90DF90CF9009942A30310519F477FDBE
:100740000DC02AE0B701A601CE01DF91CF911F9124
:100750000F91FF90EF90DF90CF9077CF6DE248DF61
:100760008C0144275527BA014C195D096E097F0990
:100770002AE0CE016ADF080F191FC801DF91CF916F
:100780001F910F91FF90EF90DF90CF9008950F93FE
:100790001F93CF93DF93EC019A01AB01662757FDBE
:1007A0006095762FACDF8C01CE0129DF9801280FF0
:1007B000391FC901DF91CF911F910F9108951F92A9
:1007C0000F920FB60F9211242F933F938F939F9305
:1007D000AF93BF938091280290912902A0912A02A1
:1007E000B0912B0230913002232F2D5F2D3720F452
:1007F0000196A11DB11D05C0232F2A570296A11DE8
:10080000B11D209330028093280290932902A09377
:100810002A02B0932B0280912C0290912D02A0917C
:100820002E02B0912F020196A11DB11D80932C02C2
:1008300090932D02A0932E02B0932F02BF91AF91FF
:100840009F918F913F912F910F900FBE0F901F900E
:1008500018950F931F939FB7F89400912C02109155
:100860002D0220912E0230912F0286B5A89B06C042
:100870008F3F21F00F5F1F4F2F4F3F4F9FBF322FF2
:10088000212F102F0027080F111D211D311D42E0BF
:10089000000F111F221F331F4A95D1F7B801C9015C
:1008A0001F910F910895CF92DF92EF92FF92CF9315
:1008B000DF936B017C01CDDFEB010DC0CADF6C1B48
:1008C0007D0B683E734038F081E0C81AD108E1081A
:1008D000F108C851DC4FC114D104E104F10471F7EF
:1008E000DF91CF91FF90EF90DF90CF9008957894B3
:1008F00084B5826084BD84B5816084BD85B5826025
:1009000085BD85B5816085BDEEE6F0E080818160C2
:100910008083E1E8F0E010828081826080838081C2
:1009200081608083E0E8F0E0808181608083E1EB9A
:10093000F0E0808184608083E0EBF0E08081816082
:100940008083EAE7F0E08081846080838081826038
:100950008083808181608083808180688083109221
:10096000C1000895A1E21A2EAA1BBB1BFD010DC0F8
:10097000AA1FBB1FEE1FFF1FA217B307E407F5074F
:1009800020F0A21BB30BE40BF50B661F771F881F2B
:10099000991F1A9469F760957095809590959B01C1
:1009A000AC01BD01CF010895EE0FFF1F0590F4913A
:0809B000E02D0994F894FFCF3B
:1009B8000000310220004368616E67696E67206934
:1009C8006E70757420737461746520746F3A005486
:1009D800696C74696E672055700054696C74696E2F
:1009E8006720446F776E0050616E6E696E67204CA9
:1009F8006566740050616E6E696E6720526967683B
:100A08007400546F67676C696E6720466C79776805
:100A180065656C00466972696E6700000000002118
:0C0A280001B902C300F200D60016010064
:00000001FF
